{
    "_format": "hh-sol-artifact-1",
    "contractName": "MessageSender",
    "sourceName": "contracts/MessageSender.sol",
    "abi": [
        {
            "inputs": [
                {
                    "internalType": "address",
                    "name": "_gateway",
                    "type": "address"
                },
                {
                    "internalType": "address",
                    "name": "_gasReceiver",
                    "type": "address"
                }
            ],
            "stateMutability": "nonpayable",
            "type": "constructor"
        },
        {
            "inputs": [
                {
                    "internalType": "string",
                    "name": "destinationChain",
                    "type": "string"
                },
                {
                    "internalType": "string",
                    "name": "destinationAddress",
                    "type": "string"
                },
                {
                    "internalType": "string",
                    "name": "symbol",
                    "type": "string"
                },
                {
                    "internalType": "uint256",
                    "name": "amount",
                    "type": "uint256"
                },
                {
                    "internalType": "uint256",
                    "name": "tokenId",
                    "type": "uint256"
                }
            ],
            "name": "crossChainBuy",
            "outputs": [],
            "stateMutability": "payable",
            "type": "function"
        },
        {
            "inputs": [
                {
                    "internalType": "string",
                    "name": "destinationChain",
                    "type": "string"
                },
                {
                    "internalType": "string",
                    "name": "destinationAddress",
                    "type": "string"
                },
                {
                    "internalType": "uint256",
                    "name": "tokenId",
                    "type": "uint256"
                }
            ],
            "name": "crossChainDelist",
            "outputs": [],
            "stateMutability": "payable",
            "type": "function"
        },
        {
            "inputs": [
                {
                    "internalType": "string",
                    "name": "destinationChain",
                    "type": "string"
                },
                {
                    "internalType": "string",
                    "name": "destinationAddress",
                    "type": "string"
                },
                {
                    "internalType": "uint256",
                    "name": "tokenId",
                    "type": "uint256"
                },
                {
                    "internalType": "uint256",
                    "name": "amount",
                    "type": "uint256"
                },
                {
                    "internalType": "uint256",
                    "name": "deadline",
                    "type": "uint256"
                },
                {
                    "internalType": "bytes",
                    "name": "signature",
                    "type": "bytes"
                }
            ],
            "name": "crossChainList",
            "outputs": [],
            "stateMutability": "payable",
            "type": "function"
        },
        {
            "inputs": [
                {
                    "internalType": "string",
                    "name": "destinationChain",
                    "type": "string"
                },
                {
                    "internalType": "string",
                    "name": "destinationAddress",
                    "type": "string"
                },
                {
                    "internalType": "string",
                    "name": "tokenUrl",
                    "type": "string"
                }
            ],
            "name": "crossChainMint",
            "outputs": [],
            "stateMutability": "payable",
            "type": "function"
        }
    ],
    "bytecode": "0x60c060405234801561001057600080fd5b50604051610f11380380610f1183398101604081905261002f91610062565b6001600160a01b0391821660a05216608052610095565b80516001600160a01b038116811461005d57600080fd5b919050565b6000806040838503121561007557600080fd5b61007e83610046565b915061008c60208401610046565b90509250929050565b60805160a051610e1f6100f260003960008181610197015281816102ea01528181610443015281816104ee0152818161064801526107bd01526000818161010a0152818161025d015281816103b601526106fd0152610e1f6000f3fe60806040526004361061003f5760003560e01c806336c3450b146100445780637a4b24e614610059578063a531cfc41461006c578063d78886bc1461007f575b600080fd5b610057610052366004610849565b610092565b005b6100576100673660046108bd565b61020e565b61005761007a366004610976565b610365565b61005761008d366004610a10565b6104bb565b60408051336020820152600091810182905260e0606082018190526101008083018490526080830185905260a0830184905260c083018490529082015261012081018290526101400160408051601f198184030181529190529050341561018057604051630c93e3bb60e01b81526001600160a01b037f00000000000000000000000000000000000000000000000000000000000000001690630c93e3bb90349061014d9030908b908b908b908b908a903390600401610b2f565b6000604051808303818588803b15801561016657600080fd5b505af115801561017a573d6000803e3d6000fd5b50505050505b604051631c92115f60e01b81526001600160a01b037f00000000000000000000000000000000000000000000000000000000000000001690631c92115f906101d49089908990899089908890600401610b92565b600060405180830381600087803b1580156101ee57600080fd5b505af1158015610202573d6000803e3d6000fd5b50505050505050505050565b6000336001878787878760405160200161022e9796959493929190610bd9565b60408051601f19818403018152919052905034156102d357604051630c93e3bb60e01b81526001600160a01b037f00000000000000000000000000000000000000000000000000000000000000001690630c93e3bb9034906102a09030908f908f908f908f908a903390600401610b2f565b6000604051808303818588803b1580156102b957600080fd5b505af11580156102cd573d6000803e3d6000fd5b50505050505b604051631c92115f60e01b81526001600160a01b037f00000000000000000000000000000000000000000000000000000000000000001690631c92115f90610327908d908d908d908d908890600401610b92565b600060405180830381600087803b15801561034157600080fd5b505af1158015610355573d6000803e3d6000fd5b5050505050505050505050505050565b6000336002848460008060006040516020016103879796959493929190610c34565b60408051601f198184030181529190529050341561042c57604051630c93e3bb60e01b81526001600160a01b037f00000000000000000000000000000000000000000000000000000000000000001690630c93e3bb9034906103f99030908c908c908c908c908a903390600401610b2f565b6000604051808303818588803b15801561041257600080fd5b505af1158015610426573d6000803e3d6000fd5b50505050505b604051631c92115f60e01b81526001600160a01b037f00000000000000000000000000000000000000000000000000000000000000001690631c92115f90610480908a908a908a908a908890600401610b92565b600060405180830381600087803b15801561049a57600080fd5b505af11580156104ae573d6000803e3d6000fd5b5050505050505050505050565b6040517f935b13f60000000000000000000000000000000000000000000000000000000081526000906001600160a01b037f0000000000000000000000000000000000000000000000000000000000000000169063935b13f6906105259088908890600401610c95565b60206040518083038186803b15801561053d57600080fd5b505afa158015610551573d6000803e3d6000fd5b505050506040513d601f19601f820116820180604052508101906105759190610cb1565b6040517f23b872dd000000000000000000000000000000000000000000000000000000008152336004820152306024820152604481018590529091506001600160a01b038216906323b872dd90606401602060405180830381600087803b1580156105df57600080fd5b505af11580156105f3573d6000803e3d6000fd5b505050506040513d601f19601f820116820180604052508101906106179190610ce1565b506040517f095ea7b30000000000000000000000000000000000000000000000000000000081526001600160a01b037f0000000000000000000000000000000000000000000000000000000000000000811660048301526024820185905282169063095ea7b390604401602060405180830381600087803b15801561069b57600080fd5b505af11580156106af573d6000803e3d6000fd5b505050506040513d601f19601f820116820180604052508101906106d39190610ce1565b50604080513360208201528082018490528151808203830181526060909101909152341561078d577f00000000000000000000000000000000000000000000000000000000000000006001600160a01b031663c62c200234308d8d8d8d888e8e8e336040518c63ffffffff1660e01b815260040161075a9a99989796959493929190610d03565b6000604051808303818588803b15801561077357600080fd5b505af1158015610787573d6000803e3d6000fd5b50505050505b6040517fb54170840000000000000000000000000000000000000000000000000000000081526001600160a01b037f0000000000000000000000000000000000000000000000000000000000000000169063b541708490610327908d908d908d908d9088908e908e908e90600401610d83565b60008083601f84011261081257600080fd5b50813567ffffffffffffffff81111561082a57600080fd5b60208301915083602082850101111561084257600080fd5b9250929050565b60008060008060006060868803121561086157600080fd5b853567ffffffffffffffff8082111561087957600080fd5b61088589838a01610800565b9097509550602088013591508082111561089e57600080fd5b506108ab88828901610800565b96999598509660400135949350505050565b600080600080600080600080600060c08a8c0312156108db57600080fd5b893567ffffffffffffffff808211156108f357600080fd5b6108ff8d838e01610800565b909b50995060208c013591508082111561091857600080fd5b6109248d838e01610800565b909950975060408c0135965060608c0135955060808c0135945060a08c013591508082111561095257600080fd5b5061095f8c828d01610800565b915080935050809150509295985092959850929598565b6000806000806000806060878903121561098f57600080fd5b863567ffffffffffffffff808211156109a757600080fd5b6109b38a838b01610800565b909850965060208901359150808211156109cc57600080fd5b6109d88a838b01610800565b909650945060408901359150808211156109f157600080fd5b506109fe89828a01610800565b979a9699509497509295939492505050565b60008060008060008060008060a0898b031215610a2c57600080fd5b883567ffffffffffffffff80821115610a4457600080fd5b610a508c838d01610800565b909a50985060208b0135915080821115610a6957600080fd5b610a758c838d01610800565b909850965060408b0135915080821115610a8e57600080fd5b50610a9b8b828c01610800565b999c989b509699959896976060870135966080013595509350505050565b81835281816020850137506000828201602090810191909152601f909101601f19169091010190565b6000815180845260005b81811015610b0857602081850181015186830182015201610aec565b81811115610b1a576000602083870101525b50601f01601f19169290920160200192915050565b60006001600160a01b03808a16835260a06020840152610b5360a08401898b610ab9565b8381036040850152610b6681888a610ab9565b90508381036060850152610b7a8187610ae2565b92505080841660808401525098975050505050505050565b606081526000610ba6606083018789610ab9565b8281036020840152610bb9818688610ab9565b90508281036040840152610bcd8185610ae2565b98975050505050505050565b6001600160a01b038816815260ff8716602082015260e06040820152600060e082015260006101008760608401528660808401528560a08401528060c0840152610c268184018587610ab9565b9a9950505050505050505050565b6001600160a01b038816815260ff8716602082015260e060408201526000610c6060e083018789610ab9565b60ff9586166060840152938516608083015250921660a083015281810360c09092019190915260008152602001949350505050565b602081526000610ca9602083018486610ab9565b949350505050565b600060208284031215610cc357600080fd5b81516001600160a01b0381168114610cda57600080fd5b9392505050565b600060208284031215610cf357600080fd5b81518015158114610cda57600080fd5b60006001600160a01b03808d16835260e06020840152610d2760e084018c8e610ab9565b8381036040850152610d3a818b8d610ab9565b90508381036060850152610d4e818a610ae2565b90508381036080850152610d6381888a610ab9565b60a0850196909652509290921660c0909101525098975050505050505050565b60a081526000610d9760a083018a8c610ab9565b8281036020840152610daa81898b610ab9565b90508281036040840152610dbe8188610ae2565b90508281036060840152610dd3818688610ab9565b915050826080830152999850505050505050505056fea26469706673582212206bd33e08b76d322e39cc7dded53f247293e637724f6850966d356aa4dae8915a64736f6c63430008090033",
    "linkReferences": {},
    "deployedLinkReferences": {}
}