{
    "_format": "hh-sol-artifact-1",
    "contractName": "MessageReceiver",
    "sourceName": "contracts/MessageReceiver.sol",
    "abi": [
        {
            "inputs": [
                {
                    "internalType": "address",
                    "name": "_gateway",
                    "type": "address"
                },
                {
                    "internalType": "address",
                    "name": "_gasReceiver",
                    "type": "address"
                }
            ],
            "stateMutability": "nonpayable",
            "type": "constructor"
        },
        {
            "inputs": [],
            "name": "InvalidAddress",
            "type": "error"
        },
        {
            "inputs": [],
            "name": "NotApprovedByGateway",
            "type": "error"
        },
        {
            "anonymous": false,
            "inputs": [],
            "name": "Executed",
            "type": "event"
        },
        {
            "anonymous": false,
            "inputs": [
                {
                    "indexed": false,
                    "internalType": "string",
                    "name": "reason",
                    "type": "string"
                }
            ],
            "name": "Failed",
            "type": "event"
        },
        {
            "anonymous": false,
            "inputs": [
                {
                    "indexed": true,
                    "internalType": "address",
                    "name": "from",
                    "type": "address"
                },
                {
                    "indexed": true,
                    "internalType": "address",
                    "name": "to",
                    "type": "address"
                },
                {
                    "indexed": false,
                    "internalType": "uint256",
                    "name": "value",
                    "type": "uint256"
                }
            ],
            "name": "Transfer",
            "type": "event"
        },
        {
            "inputs": [
                {
                    "internalType": "bytes32",
                    "name": "commandId",
                    "type": "bytes32"
                },
                {
                    "internalType": "string",
                    "name": "sourceChain",
                    "type": "string"
                },
                {
                    "internalType": "string",
                    "name": "sourceAddress",
                    "type": "string"
                },
                {
                    "internalType": "bytes",
                    "name": "payload",
                    "type": "bytes"
                }
            ],
            "name": "execute",
            "outputs": [],
            "stateMutability": "nonpayable",
            "type": "function"
        },
        {
            "inputs": [
                {
                    "internalType": "bytes32",
                    "name": "commandId",
                    "type": "bytes32"
                },
                {
                    "internalType": "string",
                    "name": "sourceChain",
                    "type": "string"
                },
                {
                    "internalType": "string",
                    "name": "sourceAddress",
                    "type": "string"
                },
                {
                    "internalType": "bytes",
                    "name": "payload",
                    "type": "bytes"
                },
                {
                    "internalType": "string",
                    "name": "tokenSymbol",
                    "type": "string"
                },
                {
                    "internalType": "uint256",
                    "name": "amount",
                    "type": "uint256"
                }
            ],
            "name": "executeWithToken",
            "outputs": [],
            "stateMutability": "nonpayable",
            "type": "function"
        },
        {
            "inputs": [],
            "name": "gateway",
            "outputs": [
                {
                    "internalType": "contract IAxelarGateway",
                    "name": "",
                    "type": "address"
                }
            ],
            "stateMutability": "view",
            "type": "function"
        },
        {
            "inputs": [],
            "name": "getMarketplace",
            "outputs": [
                {
                    "internalType": "address",
                    "name": "",
                    "type": "address"
                }
            ],
            "stateMutability": "view",
            "type": "function"
        },
        {
            "inputs": [
                {
                    "internalType": "address",
                    "name": "_nftMarket",
                    "type": "address"
                }
            ],
            "name": "setMarketplace",
            "outputs": [],
            "stateMutability": "nonpayable",
            "type": "function"
        },
        {
            "inputs": [],
            "name": "sourceChain",
            "outputs": [
                {
                    "internalType": "string",
                    "name": "",
                    "type": "string"
                }
            ],
            "stateMutability": "view",
            "type": "function"
        }
    ],
    "bytecode": "0x60c060405234801561001057600080fd5b50604051620015be380380620015be8339810160408190526100319161009f565b816001600160a01b0381166100595760405163e6c4247b60e01b815260040160405180910390fd5b6001600160a01b039081166080521660a05250600080546001600160a01b031916331790556100d2565b80516001600160a01b038116811461009a57600080fd5b919050565b600080604083850312156100b257600080fd5b6100bb83610083565b91506100c960208401610083565b90509250929050565b60805160a0516114b562000109600039600050506000818160a6015281816101620152818161030c015261049b01526114b56000f3fe608060405234801561001057600080fd5b50600436106100725760003560e01c80631c6ffa46116100505780631c6ffa46146100dd57806349160658146100f257806373ad6c2d1461010557600080fd5b80630d21bcd514610077578063116191b6146100a15780631a98b2e0146100c8575b600080fd5b6001546001600160a01b03165b6040516001600160a01b0390911681526020015b60405180910390f35b6100847f000000000000000000000000000000000000000000000000000000000000000081565b6100db6100d6366004610d71565b610118565b005b6100e5610234565b6040516100989190610ea7565b6100db610100366004610ec1565b6102c2565b6100db610113366004610f7d565b6103d2565b6000858560405161012a929190610f9a565b6040519081900381207f1876eed900000000000000000000000000000000000000000000000000000000825291506001600160a01b037f00000000000000000000000000000000000000000000000000000000000000001690631876eed9906101a7908e908e908e908e908e9089908d908d908d90600401610fd3565b602060405180830381600087803b1580156101c157600080fd5b505af11580156101d5573d6000803e3d6000fd5b505050506040513d601f19601f820116820180604052508101906101f99190611047565b61021657604051631403112d60e21b815260040160405180910390fd5b6102278a8a8a8a8a8a8a8a8a610484565b5050505050505050505050565b6002805461024190611062565b80601f016020809104026020016040519081016040528092919081815260200182805461026d90611062565b80156102ba5780601f1061028f576101008083540402835291602001916102ba565b820191906000526020600020905b81548152906001019060200180831161029d57829003601f168201915b505050505081565b600082826040516102d4929190610f9a565b6040519081900381207f5f6970c300000000000000000000000000000000000000000000000000000000825291506001600160a01b037f00000000000000000000000000000000000000000000000000000000000000001690635f6970c39061034b908b908b908b908b908b90899060040161109d565b602060405180830381600087803b15801561036557600080fd5b505af1158015610379573d6000803e3d6000fd5b505050506040513d601f19601f8201168201806040525081019061039d9190611047565b6103ba57604051631403112d60e21b815260040160405180910390fd5b6103c8878787878787610ac3565b5050505050505050565b6000546001600160a01b0316331461044a576040517f08c379a000000000000000000000000000000000000000000000000000000000815260206004820152601e60248201527f4f6e6c79206f776e65722063616e20736574206d61726b6574706c6163650000604482015260640160405180910390fd5b600180547fffffffffffffffffffffffff0000000000000000000000000000000000000000166001600160a01b0392909216919091179055565b600080610493868801886110de565b9150915060007f00000000000000000000000000000000000000000000000000000000000000006001600160a01b031663935b13f687876040518363ffffffff1660e01b81526004016104e792919061110a565b60206040518083038186803b1580156104ff57600080fd5b505afa158015610513573d6000803e3d6000fd5b505050506040513d601f19601f820116820180604052508101906105379190611126565b6001546040517f8e264590000000000000000000000000000000000000000000000000000000008152600481018590529192506000916001600160a01b0390911690638e2645909060240160006040518083038186803b15801561059a57600080fd5b505afa1580156105ae573d6000803e3d6000fd5b505050506040513d6000823e601f3d908101601f191682016040526105d691908101906111db565b6060810151909150829086146106d55760405163a9059cbb60e01b81526001600160a01b0386811660048301526024820188905282169063a9059cbb90604401602060405180830381600087803b15801561063057600080fd5b505af1158015610644573d6000803e3d6000fd5b505050506040513d601f19601f820116820180604052508101906106689190611047565b507fc65844e8ee2558ed559edaad0fdb8d4149b19d5bb4d863bc498bed24f6b2df516040516106c8906020808252601f908201527f4e667420707269636520616e64207061796d656e74206e6f742074616c6c7900604082015260600190565b60405180910390a1610a8a565b608082015115156001146107c55760405163a9059cbb60e01b81526001600160a01b0386811660048301526024820188905282169063a9059cbb90604401602060405180830381600087803b15801561072d57600080fd5b505af1158015610741573d6000803e3d6000fd5b505050506040513d601f19601f820116820180604052508101906107659190611047565b507fc65844e8ee2558ed559edaad0fdb8d4149b19d5bb4d863bc498bed24f6b2df516040516106c89060208082526012908201527f4e6674206973206e6f74206f6e2073616c650000000000000000000000000000604082015260600190565b600154604080517f68f1945f00000000000000000000000000000000000000000000000000000000815290516000926001600160a01b0316916368f1945f916004808301926020929190829003018186803b15801561082357600080fd5b505afa158015610837573d6000803e3d6000fd5b505050506040513d601f19601f8201168201806040525081019061085b91906112d3565b90506000600160009054906101000a90046001600160a01b03166001600160a01b031663893d20e86040518163ffffffff1660e01b815260040160206040518083038186803b1580156108ad57600080fd5b505afa1580156108c1573d6000803e3d6000fd5b505050506040513d601f19601f820116820180604052508101906108e59190611126565b905060008285606001516108f991906112ec565b604086810151905163a9059cbb60e01b81526001600160a01b0391821660048201526024810183905291925085169063a9059cbb90604401602060405180830381600087803b15801561094b57600080fd5b505af115801561095f573d6000803e3d6000fd5b505050506040513d601f19601f820116820180604052508101906109839190611047565b5060405163a9059cbb60e01b81526001600160a01b0383811660048301526024820185905285169063a9059cbb90604401602060405180830381600087803b1580156109ce57600080fd5b505af11580156109e2573d6000803e3d6000fd5b505050506040513d601f19601f82011682018060405250810190610a069190611047565b506001546040517f8e9c072c0000000000000000000000000000000000000000000000000000000081526001600160a01b038a81166004830152602482018a905290911690638e9c072c90604401600060405180830381600087803b158015610a6e57600080fd5b505af1158015610a82573d6000803e3d6000fd5b505050505050505b6040517f68f46c45a243a0e9065a97649faf9a5afe1692f2679e650c2f853b9cd734cc0e90600090a15050505050505050505050505050565b610acf60028787610c8f565b506000808080808080610ae4888a018a61136a565b96509650965096509650965096508560021415610b7d576001546040517fd5b2d7120000000000000000000000000000000000000000000000000000000081526001600160a01b039091169063d5b2d71290610b46908a90899060040161141e565b600060405180830381600087803b158015610b6057600080fd5b505af1158015610b74573d6000803e3d6000fd5b50505050610c57565b8560011415610bd7576001546040517f0e03aad00000000000000000000000000000000000000000000000000000000081526001600160a01b0390911690630e03aad090610b46908a908890889088908890600401611440565b6001546040517f2efcc8f10000000000000000000000000000000000000000000000000000000081526001600160a01b0389811660048301526024820187905290911690632efcc8f190604401600060405180830381600087803b158015610c3e57600080fd5b505af1158015610c52573d6000803e3d6000fd5b505050505b6040517f68f46c45a243a0e9065a97649faf9a5afe1692f2679e650c2f853b9cd734cc0e90600090a150505050505050505050505050565b828054610c9b90611062565b90600052602060002090601f016020900481019282610cbd5760008555610d03565b82601f10610cd65782800160ff19823516178555610d03565b82800160010185558215610d03579182015b82811115610d03578235825591602001919060010190610ce8565b50610d0f929150610d13565b5090565b5b80821115610d0f5760008155600101610d14565b60008083601f840112610d3a57600080fd5b50813567ffffffffffffffff811115610d5257600080fd5b602083019150836020828501011115610d6a57600080fd5b9250929050565b60008060008060008060008060008060c08b8d031215610d9057600080fd5b8a35995060208b013567ffffffffffffffff80821115610daf57600080fd5b610dbb8e838f01610d28565b909b50995060408d0135915080821115610dd457600080fd5b610de08e838f01610d28565b909950975060608d0135915080821115610df957600080fd5b610e058e838f01610d28565b909750955060808d0135915080821115610e1e57600080fd5b50610e2b8d828e01610d28565b9150809450508092505060a08b013590509295989b9194979a5092959850565b60005b83811015610e66578181015183820152602001610e4e565b83811115610e75576000848401525b50505050565b60008151808452610e93816020860160208601610e4b565b601f01601f19169290920160200192915050565b602081526000610eba6020830184610e7b565b9392505050565b60008060008060008060006080888a031215610edc57600080fd5b87359650602088013567ffffffffffffffff80821115610efb57600080fd5b610f078b838c01610d28565b909850965060408a0135915080821115610f2057600080fd5b610f2c8b838c01610d28565b909650945060608a0135915080821115610f4557600080fd5b50610f528a828b01610d28565b989b979a50959850939692959293505050565b6001600160a01b0381168114610f7a57600080fd5b50565b600060208284031215610f8f57600080fd5b8135610eba81610f65565b8183823760009101908152919050565b81835281816020850137506000828201602090810191909152601f909101601f19169091010190565b89815260c060208201526000610fed60c083018a8c610faa565b828103604084015261100081898b610faa565b9050866060840152828103608084015261101b818688610faa565b9150508260a08301529a9950505050505050505050565b8051801515811461104257600080fd5b919050565b60006020828403121561105957600080fd5b610eba82611032565b600181811c9082168061107657607f821691505b6020821081141561109757634e487b7160e01b600052602260045260246000fd5b50919050565b8681526080602082015260006110b7608083018789610faa565b82810360408401526110ca818688610faa565b915050826060830152979650505050505050565b600080604083850312156110f157600080fd5b82356110fc81610f65565b946020939093013593505050565b60208152600061111e602083018486610faa565b949350505050565b60006020828403121561113857600080fd5b8151610eba81610f65565b634e487b7160e01b600052604160045260246000fd5b60405160c0810167ffffffffffffffff8111828210171561117c5761117c611143565b60405290565b604051601f8201601f1916810167ffffffffffffffff811182821017156111ab576111ab611143565b604052919050565b600067ffffffffffffffff8211156111cd576111cd611143565b50601f01601f191660200190565b600060208083850312156111ee57600080fd5b825167ffffffffffffffff8082111561120657600080fd5b9084019060c0828703121561121a57600080fd5b611222611159565b825181528383015161123381610f65565b81850152604083015161124581610f65565b60408201526060838101519082015261126060808401611032565b608082015260a08301518281111561127757600080fd5b80840193505086601f84011261128c57600080fd5b825191506112a161129c836111b3565b611182565b82815287858486010111156112b557600080fd5b6112c483868301878701610e4b565b60a08201529695505050505050565b6000602082840312156112e557600080fd5b5051919050565b60008282101561130c57634e487b7160e01b600052601160045260246000fd5b500390565b600061131f61129c846111b3565b905082815283838301111561133357600080fd5b828260208301376000602084830101529392505050565b600082601f83011261135b57600080fd5b610eba83833560208501611311565b600080600080600080600060e0888a03121561138557600080fd5b873561139081610f65565b965060208801359550604088013567ffffffffffffffff808211156113b457600080fd5b818a0191508a601f8301126113c857600080fd5b6113d78b833560208501611311565b965060608a0135955060808a0135945060a08a0135935060c08a013591508082111561140257600080fd5b5061140f8a828b0161134a565b91505092959891949750929550565b6001600160a01b038316815260406020820152600061111e6040830184610e7b565b6001600160a01b038616815284602082015283604082015282606082015260a06080820152600061147460a0830184610e7b565b97965050505050505056fea2646970667358221220af27ead9b18a7f4f340cd24fce651096fcdc9caea8fed574088002217b259eec64736f6c63430008090033",
    "linkReferences": {},
    "deployedLinkReferences": {}
}