{
    "_format": "hh-sol-artifact-1",
    "contractName": "NFTMarketplace",
    "sourceName": "contracts/NFTMarketplace.sol",
    "abi": [
        {
            "inputs": [
                {
                    "internalType": "address",
                    "name": "_operator",
                    "type": "address"
                },
                {
                    "internalType": "address",
                    "name": "_receivingToken",
                    "type": "address"
                }
            ],
            "stateMutability": "nonpayable",
            "type": "constructor"
        },
        {
            "anonymous": false,
            "inputs": [
                {
                    "indexed": true,
                    "internalType": "address",
                    "name": "owner",
                    "type": "address"
                },
                {
                    "indexed": true,
                    "internalType": "address",
                    "name": "approved",
                    "type": "address"
                },
                {
                    "indexed": true,
                    "internalType": "uint256",
                    "name": "tokenId",
                    "type": "uint256"
                }
            ],
            "name": "Approval",
            "type": "event"
        },
        {
            "anonymous": false,
            "inputs": [
                {
                    "indexed": true,
                    "internalType": "address",
                    "name": "owner",
                    "type": "address"
                },
                {
                    "indexed": true,
                    "internalType": "address",
                    "name": "operator",
                    "type": "address"
                },
                {
                    "indexed": false,
                    "internalType": "bool",
                    "name": "approved",
                    "type": "bool"
                }
            ],
            "name": "ApprovalForAll",
            "type": "event"
        },
        {
            "anonymous": false,
            "inputs": [
                {
                    "indexed": true,
                    "internalType": "uint256",
                    "name": "tokenId",
                    "type": "uint256"
                },
                {
                    "indexed": false,
                    "internalType": "address",
                    "name": "owner",
                    "type": "address"
                },
                {
                    "indexed": false,
                    "internalType": "address",
                    "name": "seller",
                    "type": "address"
                },
                {
                    "indexed": false,
                    "internalType": "uint256",
                    "name": "price",
                    "type": "uint256"
                },
                {
                    "indexed": false,
                    "internalType": "bool",
                    "name": "currentlyListed",
                    "type": "bool"
                },
                {
                    "indexed": false,
                    "internalType": "string",
                    "name": "tokenURI",
                    "type": "string"
                }
            ],
            "name": "TokenListedSuccess",
            "type": "event"
        },
        {
            "anonymous": false,
            "inputs": [
                {
                    "indexed": true,
                    "internalType": "address",
                    "name": "from",
                    "type": "address"
                },
                {
                    "indexed": true,
                    "internalType": "address",
                    "name": "to",
                    "type": "address"
                },
                {
                    "indexed": true,
                    "internalType": "uint256",
                    "name": "tokenId",
                    "type": "uint256"
                }
            ],
            "name": "Transfer",
            "type": "event"
        },
        {
            "inputs": [],
            "name": "DOMAIN_SEPARATOR",
            "outputs": [
                {
                    "internalType": "bytes32",
                    "name": "",
                    "type": "bytes32"
                }
            ],
            "stateMutability": "view",
            "type": "function"
        },
        {
            "inputs": [
                {
                    "internalType": "address",
                    "name": "to",
                    "type": "address"
                },
                {
                    "internalType": "uint256",
                    "name": "tokenId",
                    "type": "uint256"
                }
            ],
            "name": "approve",
            "outputs": [],
            "stateMutability": "nonpayable",
            "type": "function"
        },
        {
            "inputs": [
                {
                    "internalType": "address",
                    "name": "owner",
                    "type": "address"
                }
            ],
            "name": "balanceOf",
            "outputs": [
                {
                    "internalType": "uint256",
                    "name": "",
                    "type": "uint256"
                }
            ],
            "stateMutability": "view",
            "type": "function"
        },
        {
            "inputs": [
                {
                    "internalType": "string",
                    "name": "tokenURI",
                    "type": "string"
                }
            ],
            "name": "createToken",
            "outputs": [
                {
                    "internalType": "uint256",
                    "name": "",
                    "type": "uint256"
                }
            ],
            "stateMutability": "payable",
            "type": "function"
        },
        {
            "inputs": [
                {
                    "internalType": "address",
                    "name": "recipient",
                    "type": "address"
                },
                {
                    "internalType": "string",
                    "name": "tokenURI",
                    "type": "string"
                }
            ],
            "name": "crossCreateToken",
            "outputs": [],
            "stateMutability": "payable",
            "type": "function"
        },
        {
            "inputs": [
                {
                    "internalType": "address",
                    "name": "recipient",
                    "type": "address"
                },
                {
                    "internalType": "uint256",
                    "name": "tokenId",
                    "type": "uint256"
                }
            ],
            "name": "crossDelistToken",
            "outputs": [],
            "stateMutability": "nonpayable",
            "type": "function"
        },
        {
            "inputs": [
                {
                    "internalType": "address",
                    "name": "recipient",
                    "type": "address"
                },
                {
                    "internalType": "uint256",
                    "name": "tokenId",
                    "type": "uint256"
                }
            ],
            "name": "crossExecuteSale",
            "outputs": [],
            "stateMutability": "nonpayable",
            "type": "function"
        },
        {
            "inputs": [
                {
                    "internalType": "address",
                    "name": "recipient",
                    "type": "address"
                },
                {
                    "internalType": "uint256",
                    "name": "tokenId",
                    "type": "uint256"
                },
                {
                    "internalType": "uint256",
                    "name": "price",
                    "type": "uint256"
                },
                {
                    "internalType": "uint256",
                    "name": "deadline",
                    "type": "uint256"
                },
                {
                    "internalType": "bytes",
                    "name": "signature",
                    "type": "bytes"
                }
            ],
            "name": "crossSetListToken",
            "outputs": [],
            "stateMutability": "nonpayable",
            "type": "function"
        },
        {
            "inputs": [
                {
                    "internalType": "uint256",
                    "name": "tokenId",
                    "type": "uint256"
                }
            ],
            "name": "delistToken",
            "outputs": [],
            "stateMutability": "nonpayable",
            "type": "function"
        },
        {
            "inputs": [
                {
                    "internalType": "uint256",
                    "name": "tokenId",
                    "type": "uint256"
                }
            ],
            "name": "executeSale",
            "outputs": [],
            "stateMutability": "payable",
            "type": "function"
        },
        {
            "inputs": [
                {
                    "internalType": "bool",
                    "name": "listedOnly",
                    "type": "bool"
                }
            ],
            "name": "getAllNFTs",
            "outputs": [
                {
                    "components": [
                        {
                            "internalType": "uint256",
                            "name": "tokenId",
                            "type": "uint256"
                        },
                        {
                            "internalType": "address payable",
                            "name": "owner",
                            "type": "address"
                        },
                        {
                            "internalType": "address payable",
                            "name": "seller",
                            "type": "address"
                        },
                        {
                            "internalType": "uint256",
                            "name": "price",
                            "type": "uint256"
                        },
                        {
                            "internalType": "bool",
                            "name": "currentlyListed",
                            "type": "bool"
                        },
                        {
                            "internalType": "string",
                            "name": "tokenURI",
                            "type": "string"
                        }
                    ],
                    "internalType": "struct NFTMarketplace.ListedToken[]",
                    "name": "",
                    "type": "tuple[]"
                }
            ],
            "stateMutability": "view",
            "type": "function"
        },
        {
            "inputs": [
                {
                    "internalType": "uint256",
                    "name": "tokenId",
                    "type": "uint256"
                }
            ],
            "name": "getApproved",
            "outputs": [
                {
                    "internalType": "address",
                    "name": "",
                    "type": "address"
                }
            ],
            "stateMutability": "view",
            "type": "function"
        },
        {
            "inputs": [],
            "name": "getCurrentToken",
            "outputs": [
                {
                    "internalType": "uint256",
                    "name": "",
                    "type": "uint256"
                }
            ],
            "stateMutability": "view",
            "type": "function"
        },
        {
            "inputs": [],
            "name": "getFloorPrice",
            "outputs": [
                {
                    "internalType": "uint256",
                    "name": "",
                    "type": "uint256"
                }
            ],
            "stateMutability": "view",
            "type": "function"
        },
        {
            "inputs": [
                {
                    "internalType": "address",
                    "name": "holder",
                    "type": "address"
                },
                {
                    "internalType": "bool",
                    "name": "listedOnly",
                    "type": "bool"
                }
            ],
            "name": "getHolderNFTs",
            "outputs": [
                {
                    "components": [
                        {
                            "internalType": "uint256",
                            "name": "tokenId",
                            "type": "uint256"
                        },
                        {
                            "internalType": "address payable",
                            "name": "owner",
                            "type": "address"
                        },
                        {
                            "internalType": "address payable",
                            "name": "seller",
                            "type": "address"
                        },
                        {
                            "internalType": "uint256",
                            "name": "price",
                            "type": "uint256"
                        },
                        {
                            "internalType": "bool",
                            "name": "currentlyListed",
                            "type": "bool"
                        },
                        {
                            "internalType": "string",
                            "name": "tokenURI",
                            "type": "string"
                        }
                    ],
                    "internalType": "struct NFTMarketplace.ListedToken[]",
                    "name": "",
                    "type": "tuple[]"
                }
            ],
            "stateMutability": "view",
            "type": "function"
        },
        {
            "inputs": [],
            "name": "getLatestIdToListedToken",
            "outputs": [
                {
                    "components": [
                        {
                            "internalType": "uint256",
                            "name": "tokenId",
                            "type": "uint256"
                        },
                        {
                            "internalType": "address payable",
                            "name": "owner",
                            "type": "address"
                        },
                        {
                            "internalType": "address payable",
                            "name": "seller",
                            "type": "address"
                        },
                        {
                            "internalType": "uint256",
                            "name": "price",
                            "type": "uint256"
                        },
                        {
                            "internalType": "bool",
                            "name": "currentlyListed",
                            "type": "bool"
                        },
                        {
                            "internalType": "string",
                            "name": "tokenURI",
                            "type": "string"
                        }
                    ],
                    "internalType": "struct NFTMarketplace.ListedToken",
                    "name": "",
                    "type": "tuple"
                }
            ],
            "stateMutability": "view",
            "type": "function"
        },
        {
            "inputs": [],
            "name": "getListPrice",
            "outputs": [
                {
                    "internalType": "uint256",
                    "name": "",
                    "type": "uint256"
                }
            ],
            "stateMutability": "view",
            "type": "function"
        },
        {
            "inputs": [
                {
                    "internalType": "uint256",
                    "name": "tokenId",
                    "type": "uint256"
                }
            ],
            "name": "getListedTokenForId",
            "outputs": [
                {
                    "components": [
                        {
                            "internalType": "uint256",
                            "name": "tokenId",
                            "type": "uint256"
                        },
                        {
                            "internalType": "address payable",
                            "name": "owner",
                            "type": "address"
                        },
                        {
                            "internalType": "address payable",
                            "name": "seller",
                            "type": "address"
                        },
                        {
                            "internalType": "uint256",
                            "name": "price",
                            "type": "uint256"
                        },
                        {
                            "internalType": "bool",
                            "name": "currentlyListed",
                            "type": "bool"
                        },
                        {
                            "internalType": "string",
                            "name": "tokenURI",
                            "type": "string"
                        }
                    ],
                    "internalType": "struct NFTMarketplace.ListedToken",
                    "name": "",
                    "type": "tuple"
                }
            ],
            "stateMutability": "view",
            "type": "function"
        },
        {
            "inputs": [],
            "name": "getMyNFTs",
            "outputs": [
                {
                    "components": [
                        {
                            "internalType": "uint256",
                            "name": "tokenId",
                            "type": "uint256"
                        },
                        {
                            "internalType": "address payable",
                            "name": "owner",
                            "type": "address"
                        },
                        {
                            "internalType": "address payable",
                            "name": "seller",
                            "type": "address"
                        },
                        {
                            "internalType": "uint256",
                            "name": "price",
                            "type": "uint256"
                        },
                        {
                            "internalType": "bool",
                            "name": "currentlyListed",
                            "type": "bool"
                        },
                        {
                            "internalType": "string",
                            "name": "tokenURI",
                            "type": "string"
                        }
                    ],
                    "internalType": "struct NFTMarketplace.ListedToken[]",
                    "name": "",
                    "type": "tuple[]"
                }
            ],
            "stateMutability": "view",
            "type": "function"
        },
        {
            "inputs": [],
            "name": "getOperator",
            "outputs": [
                {
                    "internalType": "address",
                    "name": "",
                    "type": "address"
                }
            ],
            "stateMutability": "view",
            "type": "function"
        },
        {
            "inputs": [],
            "name": "getOwner",
            "outputs": [
                {
                    "internalType": "address",
                    "name": "",
                    "type": "address"
                }
            ],
            "stateMutability": "view",
            "type": "function"
        },
        {
            "inputs": [],
            "name": "getReceivingToken",
            "outputs": [
                {
                    "internalType": "address",
                    "name": "",
                    "type": "address"
                }
            ],
            "stateMutability": "view",
            "type": "function"
        },
        {
            "inputs": [
                {
                    "internalType": "address",
                    "name": "owner",
                    "type": "address"
                },
                {
                    "internalType": "address",
                    "name": "operator",
                    "type": "address"
                }
            ],
            "name": "isApprovedForAll",
            "outputs": [
                {
                    "internalType": "bool",
                    "name": "",
                    "type": "bool"
                }
            ],
            "stateMutability": "view",
            "type": "function"
        },
        {
            "inputs": [],
            "name": "name",
            "outputs": [
                {
                    "internalType": "string",
                    "name": "",
                    "type": "string"
                }
            ],
            "stateMutability": "view",
            "type": "function"
        },
        {
            "inputs": [
                {
                    "internalType": "uint256",
                    "name": "tokenId",
                    "type": "uint256"
                }
            ],
            "name": "nonces",
            "outputs": [
                {
                    "internalType": "uint256",
                    "name": "",
                    "type": "uint256"
                }
            ],
            "stateMutability": "view",
            "type": "function"
        },
        {
            "inputs": [
                {
                    "internalType": "uint256",
                    "name": "tokenId",
                    "type": "uint256"
                }
            ],
            "name": "ownerOf",
            "outputs": [
                {
                    "internalType": "address",
                    "name": "",
                    "type": "address"
                }
            ],
            "stateMutability": "view",
            "type": "function"
        },
        {
            "inputs": [
                {
                    "internalType": "address",
                    "name": "spender",
                    "type": "address"
                },
                {
                    "internalType": "uint256",
                    "name": "tokenId",
                    "type": "uint256"
                },
                {
                    "internalType": "uint256",
                    "name": "deadline",
                    "type": "uint256"
                },
                {
                    "internalType": "bytes",
                    "name": "signature",
                    "type": "bytes"
                }
            ],
            "name": "permit",
            "outputs": [],
            "stateMutability": "nonpayable",
            "type": "function"
        },
        {
            "inputs": [
                {
                    "internalType": "address",
                    "name": "from",
                    "type": "address"
                },
                {
                    "internalType": "address",
                    "name": "to",
                    "type": "address"
                },
                {
                    "internalType": "uint256",
                    "name": "tokenId",
                    "type": "uint256"
                }
            ],
            "name": "safeTransferFrom",
            "outputs": [],
            "stateMutability": "nonpayable",
            "type": "function"
        },
        {
            "inputs": [
                {
                    "internalType": "address",
                    "name": "from",
                    "type": "address"
                },
                {
                    "internalType": "address",
                    "name": "to",
                    "type": "address"
                },
                {
                    "internalType": "uint256",
                    "name": "tokenId",
                    "type": "uint256"
                },
                {
                    "internalType": "bytes",
                    "name": "data",
                    "type": "bytes"
                }
            ],
            "name": "safeTransferFrom",
            "outputs": [],
            "stateMutability": "nonpayable",
            "type": "function"
        },
        {
            "inputs": [
                {
                    "internalType": "address",
                    "name": "operator",
                    "type": "address"
                },
                {
                    "internalType": "bool",
                    "name": "approved",
                    "type": "bool"
                }
            ],
            "name": "setApprovalForAll",
            "outputs": [],
            "stateMutability": "nonpayable",
            "type": "function"
        },
        {
            "inputs": [
                {
                    "internalType": "uint256",
                    "name": "tokenId",
                    "type": "uint256"
                },
                {
                    "internalType": "uint256",
                    "name": "price",
                    "type": "uint256"
                }
            ],
            "name": "setListToken",
            "outputs": [],
            "stateMutability": "nonpayable",
            "type": "function"
        },
        {
            "inputs": [
                {
                    "internalType": "uint256",
                    "name": "tokenId",
                    "type": "uint256"
                },
                {
                    "internalType": "uint256",
                    "name": "price",
                    "type": "uint256"
                },
                {
                    "internalType": "uint256",
                    "name": "deadline",
                    "type": "uint256"
                },
                {
                    "internalType": "bytes",
                    "name": "signature",
                    "type": "bytes"
                }
            ],
            "name": "setListTokenGasless",
            "outputs": [],
            "stateMutability": "nonpayable",
            "type": "function"
        },
        {
            "inputs": [
                {
                    "internalType": "bytes4",
                    "name": "interfaceId",
                    "type": "bytes4"
                }
            ],
            "name": "supportsInterface",
            "outputs": [
                {
                    "internalType": "bool",
                    "name": "",
                    "type": "bool"
                }
            ],
            "stateMutability": "view",
            "type": "function"
        },
        {
            "inputs": [],
            "name": "symbol",
            "outputs": [
                {
                    "internalType": "string",
                    "name": "",
                    "type": "string"
                }
            ],
            "stateMutability": "view",
            "type": "function"
        },
        {
            "inputs": [
                {
                    "internalType": "uint256",
                    "name": "tokenId",
                    "type": "uint256"
                }
            ],
            "name": "tokenURI",
            "outputs": [
                {
                    "internalType": "string",
                    "name": "",
                    "type": "string"
                }
            ],
            "stateMutability": "view",
            "type": "function"
        },
        {
            "inputs": [
                {
                    "internalType": "address",
                    "name": "from",
                    "type": "address"
                },
                {
                    "internalType": "address",
                    "name": "to",
                    "type": "address"
                },
                {
                    "internalType": "uint256",
                    "name": "tokenId",
                    "type": "uint256"
                }
            ],
            "name": "transferFrom",
            "outputs": [],
            "stateMutability": "nonpayable",
            "type": "function"
        },
        {
            "inputs": [
                {
                    "internalType": "uint256",
                    "name": "_floorPrice",
                    "type": "uint256"
                }
            ],
            "name": "updateFloorPrice",
            "outputs": [],
            "stateMutability": "nonpayable",
            "type": "function"
        },
        {
            "inputs": [
                {
                    "internalType": "uint256",
                    "name": "_listPrice",
                    "type": "uint256"
                }
            ],
            "name": "updateListPrice",
            "outputs": [],
            "stateMutability": "nonpayable",
            "type": "function"
        },
        {
            "inputs": [
                {
                    "internalType": "address",
                    "name": "_operator",
                    "type": "address"
                }
            ],
            "name": "updateOperator",
            "outputs": [],
            "stateMutability": "nonpayable",
            "type": "function"
        },
        {
            "inputs": [
                {
                    "internalType": "address",
                    "name": "_receivingToken",
                    "type": "address"
                }
            ],
            "name": "updateReceivingToken",
            "outputs": [],
            "stateMutability": "nonpayable",
            "type": "function"
        }
    ],
    "bytecode": "0x6101606040527f49ecf333e5b8c95c40fdafc95c1ad136e8914a8fb55e9dc8bb01eaa83a2df9ad6101405261c350600d55620186a0600e553480156200004457600080fd5b506040516200463238038062004632833981016040819052620000679162000296565b6040518060400160405280600e81526020016d4e46544d61726b6574706c61636560901b815250604051806040016040528060048152602001634e46544d60e01b81525081604051806040016040528060018152602001603160f81b815250838360016000819055508160019080519060200190620000e8929190620001d3565b508051620000fe906002906020840190620001d3565b5050825160209384012082519284019290922060e08390526101008190524660a0818152604080517f8b73c3c69bb8fe3d512ecc4cf759cc79239f7b179b0ffacaa9a75d522b39400f818901819052818301979097526060810194909452608080850193909352308483018190528151808603909301835260c094850190915281519190960120905292909252610120525050600c8054336001600160a01b031991821617909155600f805482166001600160a01b03958616179055601180549091169290931691909117909155506200030b565b828054620001e190620002ce565b90600052602060002090601f01602090048101928262000205576000855562000250565b82601f106200022057805160ff191683800117855562000250565b8280016001018555821562000250579182015b828111156200025057825182559160200191906001019062000233565b506200025e92915062000262565b5090565b5b808211156200025e576000815560010162000263565b80516001600160a01b03811681146200029157600080fd5b919050565b60008060408385031215620002aa57600080fd5b620002b58362000279565b9150620002c56020840162000279565b90509250929050565b600181811c90821680620002e357607f821691505b602082108114156200030557634e487b7160e01b600052602260045260246000fd5b50919050565b60805160a05160c05160e0516101005161012051610140516142cc620003666000396000612b8401526000612dd301526000612e2201526000612dfd01526000612d5601526000612d8001526000612daa01526142cc6000f3fe6080604052600436106102bb5760003560e01c806370a082311161016e578063b88d4fde116100cb578063d5b2d7121161007f578063e985e9c511610064578063e985e9c51461074a578063eb42dad914610793578063ef2d1746146107b357600080fd5b8063d5b2d71214610719578063e7f43c681461072c57600080fd5b8063c322579c116100b0578063c322579c146106c4578063c87b56dd146106e4578063d1a88ae51461070457600080fd5b8063b88d4fde14610684578063bed659bc146106a457600080fd5b806395d89b4111610122578063a22cb46511610107578063a22cb46514610624578063a83835c714610644578063ac7475ed1461066457600080fd5b806395d89b41146105fc5780639b1225c41461061157600080fd5b8063893d20e811610153578063893d20e8146105915780638e264590146105af5780638e9c072c146105dc57600080fd5b806370a0823114610551578063745a41bc1461057157600080fd5b80632d04fa8b1161021c57806345576f94116101d05780636352211e116101b55780636352211e146104fc57806368f1945f1461051c5780636eb7f72e1461053157600080fd5b806345576f94146104d4578063629cb2e4146104e757600080fd5b80633644e515116102015780633644e51514610472578063375ea4b71461048757806342842e0e146104b457600080fd5b80632d04fa8b146104345780632efcc8f11461045257600080fd5b8063141a468c116102735780631a1f1115116102585780631a1f1115146103df57806323b872dd146103ff5780632a33d6b21461041f57600080fd5b8063141a468c1461039157806317f500db146103bf57600080fd5b8063081812fc116102a4578063081812fc14610317578063095ea7b31461034f5780630e03aad01461037157600080fd5b806301ffc9a7146102c057806306fdde03146102f5575b600080fd5b3480156102cc57600080fd5b506102e06102db366004613b33565b6107c8565b60405190151581526020015b60405180910390f35b34801561030157600080fd5b5061030a61080c565b6040516102ec9190613ba8565b34801561032357600080fd5b50610337610332366004613bbb565b61089e565b6040516001600160a01b0390911681526020016102ec565b34801561035b57600080fd5b5061036f61036a366004613bf0565b6108c5565b005b34801561037d57600080fd5b5061036f61038c366004613cbd565b6109fc565b34801561039d57600080fd5b506103b16103ac366004613bbb565b610c1f565b6040519081526020016102ec565b3480156103cb57600080fd5b5061036f6103da366004613d28565b610c33565b3480156103eb57600080fd5b5061036f6103fa366004613d82565b610df6565b34801561040b57600080fd5b5061036f61041a366004613da4565b610fb5565b34801561042b57600080fd5b50600e546103b1565b34801561044057600080fd5b506011546001600160a01b0316610337565b34801561045e57600080fd5b5061036f61046d366004613bf0565b61103c565b34801561047e57600080fd5b506103b1611143565b34801561049357600080fd5b506104a76104a2366004613dee565b611152565b6040516102ec9190613e7d565b3480156104c057600080fd5b5061036f6104cf366004613da4565b61155c565b6103b16104e2366004613edf565b611577565b3480156104f357600080fd5b506104a76115b6565b34801561050857600080fd5b50610337610517366004613bbb565b6118bd565b34801561052857600080fd5b50600d546103b1565b34801561053d57600080fd5b5061036f61054c366004613bbb565b611922565b34801561055d57600080fd5b506103b161056c366004613f14565b6119a7565b34801561057d57600080fd5b5061036f61058c366004613f2f565b611a41565b34801561059d57600080fd5b50600c546001600160a01b0316610337565b3480156105bb57600080fd5b506105cf6105ca366004613bbb565b611a53565b6040516102ec9190613f78565b3480156105e857600080fd5b5061036f6105f7366004613bf0565b611b9e565b34801561060857600080fd5b5061030a611c55565b61036f61061f366004613bbb565b611c64565b34801561063057600080fd5b5061036f61063f366004613dee565b612020565b34801561065057600080fd5b506104a761065f366004613f8b565b61202b565b34801561067057600080fd5b5061036f61067f366004613f14565b612349565b34801561069057600080fd5b5061036f61069f366004613fa8565b6123c5565b3480156106b057600080fd5b5061036f6106bf366004613bbb565b61244d565b3480156106d057600080fd5b5061036f6106df366004613bbb565b6124e7565b3480156106f057600080fd5b5061030a6106ff366004613bbb565b61256c565b34801561071057600080fd5b506105cf61267d565b61036f610727366004613ff8565b6127d4565b34801561073857600080fd5b50600f546001600160a01b0316610337565b34801561075657600080fd5b506102e0610765366004614046565b6001600160a01b03918216600090815260066020908152604080832093909416825291909152205460ff1690565b34801561079f57600080fd5b5061036f6107ae366004613f14565b61287a565b3480156107bf57600080fd5b506103b161291c565b60006001600160e01b031982167f5604e225000000000000000000000000000000000000000000000000000000001480610806575061080682612927565b92915050565b60606001805461081b90614079565b80601f016020809104026020016040519081016040528092919081815260200182805461084790614079565b80156108945780601f1061086957610100808354040283529160200191610894565b820191906000526020600020905b81548152906001019060200180831161087757829003601f168201915b5050505050905090565b60006108a9826129c2565b506000908152600560205260409020546001600160a01b031690565b60006108d0826118bd565b9050806001600160a01b0316836001600160a01b0316141561095f5760405162461bcd60e51b815260206004820152602160248201527f4552433732313a20617070726f76616c20746f2063757272656e74206f776e6560448201527f720000000000000000000000000000000000000000000000000000000000000060648201526084015b60405180910390fd5b336001600160a01b038216148061097b575061097b8133610765565b6109ed5760405162461bcd60e51b815260206004820152603e60248201527f4552433732313a20617070726f76652063616c6c6572206973206e6f7420746f60448201527f6b656e206f776e6572206e6f7220617070726f76656420666f7220616c6c00006064820152608401610956565b6109f78383612a29565b505050565b600f546001600160a01b03163314610a655760405162461bcd60e51b815260206004820152602660248201527f4f6e6c79206f70657261746f722063616e2061636365737320746869732066756044820152653731ba34b7b760d11b6064820152608401610956565b60008311610ac05760405162461bcd60e51b815260206004820152602260248201527f4d616b652073757265207468652070726963652069736e2774206e6567617469604482015261766560f01b6064820152608401610956565b600d54831015610b225760405162461bcd60e51b815260206004820152602760248201527f596f75206e65656420746f20696e636c756465206c697374696e6720707269636044820152660ca40d2dc40e8f60cb1b6064820152608401610956565b6000848152601060205260409020600201546001600160a01b03868116911614610b995760405162461bcd60e51b815260206004820152602260248201527f4f6e6c79206e667420686f6c6465722063616e20746f67676c65206c697374696044820152616e6760f01b6064820152608401610956565b610ba68530868585612a97565b6000610bb18561256c565b9050847fbe03728682d1fb99860367c3b95f7c28a74af28403c7805ebc7ae722543222cc308887600186604051610bec9594939291906140b4565b60405180910390a25050506000918252601060205260409091206003810191909155600401805460ff1916600117905550565b600081815260076020526040812054610806565b60008311610c8e5760405162461bcd60e51b815260206004820152602260248201527f4d616b652073757265207468652070726963652069736e2774206e6567617469604482015261766560f01b6064820152608401610956565b600d54831015610cf05760405162461bcd60e51b815260206004820152602760248201527f596f75206e65656420746f20696e636c756465206c697374696e6720707269636044820152660ca40d2dc40e8f60cb1b6064820152608401610956565b60008481526010602052604090206002015433906001600160a01b03168114610d665760405162461bcd60e51b815260206004820152602260248201527f4f6e6c79206e667420686f6c6465722063616e20746f67676c65206c697374696044820152616e6760f01b6064820152608401610956565b610d7233868585612b1e565b610d7d813087612cab565b6000610d888661256c565b9050857fbe03728682d1fb99860367c3b95f7c28a74af28403c7805ebc7ae722543222cc308488600186604051610dc39594939291906140b4565b60405180910390a2505050600092835250601060205260409091206003810191909155600401805460ff19166001179055565b60008111610e515760405162461bcd60e51b815260206004820152602260248201527f4d616b652073757265207468652070726963652069736e2774206e6567617469604482015261766560f01b6064820152608401610956565b600d54811015610eb35760405162461bcd60e51b815260206004820152602760248201527f596f75206e65656420746f20696e636c756465206c697374696e6720707269636044820152660ca40d2dc40e8f60cb1b6064820152608401610956565b60008281526010602052604090206002015433906001600160a01b03168114610f295760405162461bcd60e51b815260206004820152602260248201527f4f6e6c79206e667420686f6c6465722063616e20746f67676c65206c697374696044820152616e6760f01b6064820152608401610956565b610f3330846108c5565b610f3e813085612cab565b6000610f498461256c565b9050837fbe03728682d1fb99860367c3b95f7c28a74af28403c7805ebc7ae722543222cc308486600186604051610f849594939291906140b4565b60405180910390a250506000918252601060205260409091206003810191909155600401805460ff19166001179055565b610fbf3382612ccb565b6110315760405162461bcd60e51b815260206004820152602e60248201527f4552433732313a2063616c6c6572206973206e6f7420746f6b656e206f776e6560448201527f72206e6f7220617070726f7665640000000000000000000000000000000000006064820152608401610956565b6109f7838383612cab565b600f546001600160a01b031633146110a55760405162461bcd60e51b815260206004820152602660248201527f4f6e6c79206f70657261746f722063616e2061636365737320746869732066756044820152653731ba34b7b760d11b6064820152608401610956565b6000818152601060205260409020600201546001600160a01b0383811691161461111c5760405162461bcd60e51b815260206004820152602260248201527f4f6e6c79206e667420686f6c6465722063616e20746f67676c65206c697374696044820152616e6760f01b6064820152608401610956565b611127308383612cab565b6000908152601060205260409020600401805460ff1916905550565b600061114d612d49565b905090565b600c546060906001600160a01b031633146111d55760405162461bcd60e51b815260206004820152602360248201527f4f6e6c79206f776e65722063616e20726574726965766520686f6c646572206460448201527f61746100000000000000000000000000000000000000000000000000000000006064820152608401610956565b60006111e0600a5490565b905060008167ffffffffffffffff8111156111fd576111fd613c1a565b60405190808252806020026020018201604052801561127b57816020015b6112686040518060c001604052806000815260200160006001600160a01b0316815260200160006001600160a01b0316815260200160008152602001600015158152602001606081525090565b81526020019060019003908161121b5790505b5090506000805b8381101561155157600061129782600161410f565b60008181526010602052604090209091508780156112b95750600481015460ff165b80156112ed575060018101546001600160a01b038a8116911614806112ed575060028101546001600160a01b038a81169116145b156113f5576040805160c0810182528254815260018301546001600160a01b0390811660208301526002840154169181019190915260038201546060820152600482015460ff1615156080820152600582018054839160a084019161135190614079565b80601f016020809104026020016040519081016040528092919081815260200182805461137d90614079565b80156113ca5780601f1061139f576101008083540402835291602001916113ca565b820191906000526020600020905b8154815290600101906020018083116113ad57829003601f168201915b5050505050815250508585815181106113e5576113e5614127565b602002602001018190525061152f565b8715801561142b575060018101546001600160a01b038a81169116148061142b575060028101546001600160a01b038a81169116145b1561152f576040805160c0810182528254815260018301546001600160a01b0390811660208301526002840154169181019190915260038201546060820152600482015460ff1615156080820152600582018054839160a084019161148f90614079565b80601f01602080910402602001604051908101604052809291908181526020018280546114bb90614079565b80156115085780601f106114dd57610100808354040283529160200191611508565b820191906000526020600020905b8154815290600101906020018083116114eb57829003601f168201915b50505050508152505085858151811061152357611523614127565b60200260200101819052505b61153a60018561410f565b9350505080806115499061413d565b915050611282565b509095945050505050565b6109f7838383604051806020016040528060008152506123c5565b6000611587600a80546001019055565b6000611592600a5490565b905061159e3382612e70565b6115a88184612e8a565b61080681600e543386612f33565b606060006115c3600a5490565b905060008060005b8381101561165b5733601060006115e384600161410f565b81526020810191909152604001600020600101546001600160a01b031614806116365750336010600061161784600161410f565b81526020810191909152604001600020600201546001600160a01b0316145b156116495761164660018461410f565b92505b806116538161413d565b9150506115cb565b5060008267ffffffffffffffff81111561167757611677613c1a565b6040519080825280602002602001820160405280156116f557816020015b6116e26040518060c001604052806000815260200160006001600160a01b0316815260200160006001600160a01b0316815260200160008152602001600015158152602001606081525090565b8152602001906001900390816116955790505b50905060005b848110156118b457336010600061171384600161410f565b81526020810191909152604001600020600101546001600160a01b031614806117665750336010600061174784600161410f565b81526020810191909152604001600020600201546001600160a01b0316145b156118a257600061177882600161410f565b600081815260106020908152604091829020825160c0810184528154815260018201546001600160a01b039081169382019390935260028201549092169282019290925260038201546060820152600482015460ff161515608082015260058201805493945091929091839160a0840191906117f390614079565b80601f016020809104026020016040519081016040528092919081815260200182805461181f90614079565b801561186c5780601f106118415761010080835404028352916020019161186c565b820191906000526020600020905b81548152906001019060200180831161184f57829003601f168201915b50505050508152505084868151811061188757611887614127565b602090810291909101015261189d60018661410f565b945050505b806118ac8161413d565b9150506116fb565b50949350505050565b6000818152600360205260408120546001600160a01b0316806108065760405162461bcd60e51b815260206004820152601860248201527f4552433732313a20696e76616c696420746f6b656e20494400000000000000006044820152606401610956565b600c546001600160a01b031633146119a25760405162461bcd60e51b815260206004820152602160248201527f4f6e6c79206f776e65722063616e2075706461746520666c6f6f72207072696360448201527f65000000000000000000000000000000000000000000000000000000000000006064820152608401610956565b600e55565b60006001600160a01b038216611a255760405162461bcd60e51b815260206004820152602960248201527f4552433732313a2061646472657373207a65726f206973206e6f74206120766160448201527f6c6964206f776e657200000000000000000000000000000000000000000000006064820152608401610956565b506001600160a01b031660009081526004602052604090205490565b611a4d84848484612b1e565b50505050565b611aa06040518060c001604052806000815260200160006001600160a01b0316815260200160006001600160a01b0316815260200160008152602001600015158152602001606081525090565b600082815260106020908152604091829020825160c0810184528154815260018201546001600160a01b039081169382019390935260028201549092169282019290925260038201546060820152600482015460ff161515608082015260058201805491929160a084019190611b1590614079565b80601f0160208091040260200160405190810160405280929190818152602001828054611b4190614079565b8015611b8e5780601f10611b6357610100808354040283529160200191611b8e565b820191906000526020600020905b815481529060010190602001808311611b7157829003601f168201915b5050505050815250509050919050565b600f546001600160a01b03163314611c075760405162461bcd60e51b815260206004820152602660248201527f4f6e6c79206f70657261746f722063616e2061636365737320746869732066756044820152653731ba34b7b760d11b6064820152608401610956565b600081815260106020526040902060048101805460ff1916905560020180546001600160a01b0319166001600160a01b038416179055600b80546001019055611c51308383612cab565b5050565b60606002805461081b90614079565b60008181526010602052604090206003810154600282015460049092015490916001600160a01b03169060ff161515600114611ce25760405162461bcd60e51b815260206004820152601260248201527f4e4654206973206e6f74206f6e2073616c6500000000000000000000000000006044820152606401610956565b6011546040517fdd62ed3e0000000000000000000000000000000000000000000000000000000081523360048201819052306024830152916001600160a01b031690600090829063dd62ed3e9060440160206040518083038186803b158015611d4a57600080fd5b505afa158015611d5e573d6000803e3d6000fd5b505050506040513d601f19601f82011682018060405250810190611d829190614158565b905060008111611dd45760405162461bcd60e51b815260206004820152601660248201527f496e73756666696369656e7420616c6c6f77616e6365000000000000000000006044820152606401610956565b6040517f70a0823100000000000000000000000000000000000000000000000000000000815233600482015285906001600160a01b038416906370a082319060240160206040518083038186803b158015611e2e57600080fd5b505afa158015611e42573d6000803e3d6000fd5b505050506040513d601f19601f82011682018060405250810190611e669190614158565b1015611eb45760405162461bcd60e51b815260206004820152601460248201527f496e73756666696369656e74207061796d656e740000000000000000000000006044820152606401610956565b600086815260106020526040902060048101805460ff1916905560020180546001600160a01b0319166001600160a01b038516179055600b805460010190556040516323b872dd60e01b81523360048201526001600160a01b038581166024830152604482018790528316906323b872dd90606401602060405180830381600087803b158015611f4357600080fd5b505af1158015611f57573d6000803e3d6000fd5b505050506040513d601f19601f82011682018060405250810190611f7b9190614171565b50600c54600d546040516323b872dd60e01b81523360048201526001600160a01b0392831660248201526044810191909152908316906323b872dd90606401602060405180830381600087803b158015611fd457600080fd5b505af1158015611fe8573d6000803e3d6000fd5b505050506040513d601f19601f8201168201806040525081019061200c9190614171565b50612018308488612cab565b505050505050565b611c51338383612fec565b60606000612038600a5490565b905060008167ffffffffffffffff81111561205557612055613c1a565b6040519080825280602002602001820160405280156120d357816020015b6120c06040518060c001604052806000815260200160006001600160a01b0316815260200160006001600160a01b0316815260200160008152602001600015158152602001606081525090565b8152602001906001900390816120735790505b5090506000805b8381101561233f5760006120ef82600161410f565b60008181526010602052604090209091508780156121115750600481015460ff165b15612219576040805160c0810182528254815260018301546001600160a01b0390811660208301526002840154169181019190915260038201546060820152600482015460ff1615156080820152600582018054839160a084019161217590614079565b80601f01602080910402602001604051908101604052809291908181526020018280546121a190614079565b80156121ee5780601f106121c3576101008083540402835291602001916121ee565b820191906000526020600020905b8154815290600101906020018083116121d157829003601f168201915b50505050508152505085858151811061220957612209614127565b602002602001018190525061231d565b8761231d576040805160c0810182528254815260018301546001600160a01b0390811660208301526002840154169181019190915260038201546060820152600482015460ff1615156080820152600582018054839160a084019161227d90614079565b80601f01602080910402602001604051908101604052809291908181526020018280546122a990614079565b80156122f65780601f106122cb576101008083540402835291602001916122f6565b820191906000526020600020905b8154815290600101906020018083116122d957829003601f168201915b50505050508152505085858151811061231157612311614127565b60200260200101819052505b61232860018561410f565b9350505080806123379061413d565b9150506120da565b5090949350505050565b600c546001600160a01b031633146123a35760405162461bcd60e51b815260206004820152601e60248201527f4f6e6c79206f776e65722063616e20757064617465206f70657261746f7200006044820152606401610956565b600f80546001600160a01b0319166001600160a01b0392909216919091179055565b6123cf3383612ccb565b6124415760405162461bcd60e51b815260206004820152602e60248201527f4552433732313a2063616c6c6572206973206e6f7420746f6b656e206f776e6560448201527f72206e6f7220617070726f7665640000000000000000000000000000000000006064820152608401610956565b611a4d848484846130bb565b6000818152601060205260409020600201546001600160a01b031633146124c15760405162461bcd60e51b815260206004820152602260248201527f4f6e6c79206e667420686f6c6465722063616e20746f67676c65206c697374696044820152616e6760f01b6064820152608401610956565b6124cc303383612cab565b6000908152601060205260409020600401805460ff19169055565b600c546001600160a01b031633146125675760405162461bcd60e51b815260206004820152602360248201527f4f6e6c79206f776e65722063616e20757064617465206c697374696e6720707260448201527f69636500000000000000000000000000000000000000000000000000000000006064820152608401610956565b600d55565b6060612577826129c2565b6000828152600860205260408120805461259090614079565b80601f01602080910402602001604051908101604052809291908181526020018280546125bc90614079565b80156126095780601f106125de57610100808354040283529160200191612609565b820191906000526020600020905b8154815290600101906020018083116125ec57829003601f168201915b50505050509050600061262760408051602081019091526000815290565b905080516000141561263a575092915050565b81511561266c57808260405160200161265492919061418e565b60405160208183030381529060405292505050919050565b61267584613139565b949350505050565b6126ca6040518060c001604052806000815260200160006001600160a01b0316815260200160006001600160a01b0316815260200160008152602001600015158152602001606081525090565b60006126d5600a5490565b600081815260106020908152604091829020825160c0810184528154815260018201546001600160a01b039081169382019390935260028201549092169282019290925260038201546060820152600482015460ff1615156080820152600582018054939450909260a08401919061274c90614079565b80601f016020809104026020016040519081016040528092919081815260200182805461277890614079565b80156127c55780601f1061279a576101008083540402835291602001916127c5565b820191906000526020600020905b8154815290600101906020018083116127a857829003601f168201915b50505050508152505091505090565b600f546001600160a01b0316331461283d5760405162461bcd60e51b815260206004820152602660248201527f4f6e6c79206f70657261746f722063616e2061636365737320746869732066756044820152653731ba34b7b760d11b6064820152608401610956565b61284b600a80546001019055565b6000612856600a5490565b90506128628382612e70565b61286c8183612e8a565b6109f781600e548585612f33565b600c546001600160a01b031633146128fa5760405162461bcd60e51b815260206004820152602560248201527f4f6e6c79206f776e65722063616e2075706461746520726563656976696e672060448201527f746f6b656e0000000000000000000000000000000000000000000000000000006064820152608401610956565b601180546001600160a01b0319166001600160a01b0392909216919091179055565b600061114d600a5490565b60006001600160e01b031982167f80ac58cd00000000000000000000000000000000000000000000000000000000148061298a57506001600160e01b031982167f5b5e139f00000000000000000000000000000000000000000000000000000000145b8061080657507f01ffc9a7000000000000000000000000000000000000000000000000000000006001600160e01b0319831614610806565b6000818152600360205260409020546001600160a01b0316612a265760405162461bcd60e51b815260206004820152601860248201527f4552433732313a20696e76616c696420746f6b656e20494400000000000000006044820152606401610956565b50565b600081815260056020526040902080546001600160a01b0319166001600160a01b0384169081179091558190612a5e826118bd565b6001600160a01b03167f8c5be1e5ebec7d5bd14f71427d1e84f3dd0314c0f7b2291e5b200ac8c7c3b92560405160405180910390a45050565b600f546001600160a01b03163314612b005760405162461bcd60e51b815260206004820152602660248201527f4f6e6c79206f70657261746f722063616e2061636365737320746869732066756044820152653731ba34b7b760d11b6064820152608401610956565b612b0c33848484612b1e565b612b17858585612cab565b5050505050565b81421115612b6e5760405162461bcd60e51b815260206004820152601e60248201527f4552433732315065726d69743a206578706972656420646561646c696e6500006044820152606401610956565b60008381526007602090815260408083205481517f0000000000000000000000000000000000000000000000000000000000000000818501526001600160a01b0389168184015260608101889052608081019190915260a08082018790528251808303909101815260c0909101909152805191012090612bed826131ad565b90506000612bfb8285613216565b50905060006001600160a01b03821615801590612c1d5750612c1d8288612ccb565b90508080612c395750612c39612c32886118bd565b848761325c565b80612c4b5750612c4b612c328861089e565b612c975760405162461bcd60e51b815260206004820152601f60248201527f4552433732315065726d69743a20696e76616c6964207369676e6174757265006044820152606401610956565b612ca18888612a29565b5050505050505050565b6000818152600760205260409020805460010190556109f7838383613380565b600080612cd7836118bd565b9050806001600160a01b0316846001600160a01b03161480612d1e57506001600160a01b0380821660009081526006602090815260408083209388168352929052205460ff165b806126755750836001600160a01b0316612d378461089e565b6001600160a01b031614949350505050565b6000306001600160a01b037f000000000000000000000000000000000000000000000000000000000000000016148015612da257507f000000000000000000000000000000000000000000000000000000000000000046145b15612dcc57507f000000000000000000000000000000000000000000000000000000000000000090565b50604080517f00000000000000000000000000000000000000000000000000000000000000006020808301919091527f0000000000000000000000000000000000000000000000000000000000000000828401527f000000000000000000000000000000000000000000000000000000000000000060608301524660808301523060a0808401919091528351808403909101815260c0909201909252805191012090565b611c5182826040518060200160405280600081525061354d565b6000828152600360205260409020546001600160a01b0316612f145760405162461bcd60e51b815260206004820152602e60248201527f45524337323155524953746f726167653a2055524920736574206f66206e6f6e60448201527f6578697374656e7420746f6b656e0000000000000000000000000000000000006064820152608401610956565b600082815260086020908152604090912082516109f792840190613a84565b6040805160c0810182528581523060208083019182526001600160a01b038681168486019081526060850189815260006080870181815260a088018a81528d835260108752989091208751815595516001870180546001600160a01b031990811692871692909217905592516002870180549094169416939093179091555160038401555160048301805460ff19169115159190911790559251805192939192612fe39260058501920190613a84565b50505050505050565b816001600160a01b0316836001600160a01b0316141561304e5760405162461bcd60e51b815260206004820152601960248201527f4552433732313a20617070726f766520746f2063616c6c6572000000000000006044820152606401610956565b6001600160a01b03838116600081815260066020908152604080832094871680845294825291829020805460ff191686151590811790915591519182527f17307eab39ab6107e8899845ad3d59bd9653f200f220920489ca2b5937696c31910160405180910390a3505050565b6130c6848484612cab565b6130d2848484846135cb565b611a4d5760405162461bcd60e51b815260206004820152603260248201527f4552433732313a207472616e7366657220746f206e6f6e20455243373231526560448201527131b2b4bb32b91034b6b83632b6b2b73a32b960711b6064820152608401610956565b6060613144826129c2565b600061315b60408051602081019091526000815290565b9050600081511161317b57604051806020016040528060008152506131a6565b8061318584613723565b60405160200161319692919061418e565b6040516020818303038152906040525b9392505050565b60006108066131ba612d49565b836040517f19010000000000000000000000000000000000000000000000000000000000006020820152602281018390526042810182905260009060620160405160208183030381529060405280519060200120905092915050565b60008082516041141561324d5760208301516040840151606085015160001a61324187828585613855565b94509450505050613255565b506000905060025b9250929050565b6000806000856001600160a01b0316631626ba7e60e01b86866040516024016132869291906141bd565b60408051601f198184030181529181526020820180517bffffffffffffffffffffffffffffffffffffffffffffffffffffffff166001600160e01b03199094169390931790925290516132d991906141d6565b600060405180830381855afa9150503d8060008114613314576040519150601f19603f3d011682016040523d82523d6000602084013e613319565b606091505b509150915081801561332c575080516020145b8015613376575080517f1626ba7e000000000000000000000000000000000000000000000000000000009061336a90830160209081019084016141f2565b6001600160e01b031916145b9695505050505050565b826001600160a01b0316613393826118bd565b6001600160a01b03161461340f5760405162461bcd60e51b815260206004820152602560248201527f4552433732313a207472616e736665722066726f6d20696e636f72726563742060448201527f6f776e65720000000000000000000000000000000000000000000000000000006064820152608401610956565b6001600160a01b03821661348a5760405162461bcd60e51b8152602060048201526024808201527f4552433732313a207472616e7366657220746f20746865207a65726f2061646460448201527f72657373000000000000000000000000000000000000000000000000000000006064820152608401610956565b613495600082612a29565b6001600160a01b03831660009081526004602052604081208054600192906134be90849061420f565b90915550506001600160a01b03821660009081526004602052604081208054600192906134ec90849061410f565b909155505060008181526003602052604080822080546001600160a01b0319166001600160a01b0386811691821790925591518493918716917fddf252ad1be2c89b69c2b068fc378daa952ba7f163c4a11628f55a4df523b3ef91a4505050565b6135578383613942565b61356460008484846135cb565b6109f75760405162461bcd60e51b815260206004820152603260248201527f4552433732313a207472616e7366657220746f206e6f6e20455243373231526560448201527131b2b4bb32b91034b6b83632b6b2b73a32b960711b6064820152608401610956565b60006001600160a01b0384163b1561371857604051630a85bd0160e11b81526001600160a01b0385169063150b7a029061360f903390899088908890600401614226565b602060405180830381600087803b15801561362957600080fd5b505af1925050508015613659575060408051601f3d908101601f19168201909252613656918101906141f2565b60015b6136fe573d808015613687576040519150601f19603f3d011682016040523d82523d6000602084013e61368c565b606091505b5080516136f65760405162461bcd60e51b815260206004820152603260248201527f4552433732313a207472616e7366657220746f206e6f6e20455243373231526560448201527131b2b4bb32b91034b6b83632b6b2b73a32b960711b6064820152608401610956565b805181602001fd5b6001600160e01b031916630a85bd0160e11b149050612675565b506001949350505050565b60608161376357505060408051808201909152600181527f3000000000000000000000000000000000000000000000000000000000000000602082015290565b8160005b811561378d57806137778161413d565b91506137869050600a8361426e565b9150613767565b60008167ffffffffffffffff8111156137a8576137a8613c1a565b6040519080825280601f01601f1916602001820160405280156137d2576020820181803683370190505b5090505b8415612675576137e760018361420f565b91506137f4600a86614282565b6137ff90603061410f565b60f81b81838151811061381457613814614127565b60200101907effffffffffffffffffffffffffffffffffffffffffffffffffffffffffffff1916908160001a90535061384e600a8661426e565b94506137d6565b6000807f7fffffffffffffffffffffffffffffff5d576e7357a4501ddfe92f46681b20a083111561388c5750600090506003613939565b8460ff16601b141580156138a457508460ff16601c14155b156138b55750600090506004613939565b6040805160008082526020820180845289905260ff881692820192909252606081018690526080810185905260019060a0016020604051602081039080840390855afa158015613909573d6000803e3d6000fd5b5050604051601f1901519150506001600160a01b03811661393257600060019250925050613939565b9150600090505b94509492505050565b6001600160a01b0382166139985760405162461bcd60e51b815260206004820181905260248201527f4552433732313a206d696e7420746f20746865207a65726f20616464726573736044820152606401610956565b6000818152600360205260409020546001600160a01b0316156139fd5760405162461bcd60e51b815260206004820152601c60248201527f4552433732313a20746f6b656e20616c7265616479206d696e746564000000006044820152606401610956565b6001600160a01b0382166000908152600460205260408120805460019290613a2690849061410f565b909155505060008181526003602052604080822080546001600160a01b0319166001600160a01b03861690811790915590518392907fddf252ad1be2c89b69c2b068fc378daa952ba7f163c4a11628f55a4df523b3ef908290a45050565b828054613a9090614079565b90600052602060002090601f016020900481019282613ab25760008555613af8565b82601f10613acb57805160ff1916838001178555613af8565b82800160010185558215613af8579182015b82811115613af8578251825591602001919060010190613add565b50613b04929150613b08565b5090565b5b80821115613b045760008155600101613b09565b6001600160e01b031981168114612a2657600080fd5b600060208284031215613b4557600080fd5b81356131a681613b1d565b60005b83811015613b6b578181015183820152602001613b53565b83811115611a4d5750506000910152565b60008151808452613b94816020860160208601613b50565b601f01601f19169290920160200192915050565b6020815260006131a66020830184613b7c565b600060208284031215613bcd57600080fd5b5035919050565b80356001600160a01b0381168114613beb57600080fd5b919050565b60008060408385031215613c0357600080fd5b613c0c83613bd4565b946020939093013593505050565b634e487b7160e01b600052604160045260246000fd5b600082601f830112613c4157600080fd5b813567ffffffffffffffff80821115613c5c57613c5c613c1a565b604051601f8301601f19908116603f01168101908282118183101715613c8457613c84613c1a565b81604052838152866020858801011115613c9d57600080fd5b836020870160208301376000602085830101528094505050505092915050565b600080600080600060a08688031215613cd557600080fd5b613cde86613bd4565b9450602086013593506040860135925060608601359150608086013567ffffffffffffffff811115613d0f57600080fd5b613d1b88828901613c30565b9150509295509295909350565b60008060008060808587031215613d3e57600080fd5b843593506020850135925060408501359150606085013567ffffffffffffffff811115613d6a57600080fd5b613d7687828801613c30565b91505092959194509250565b60008060408385031215613d9557600080fd5b50508035926020909101359150565b600080600060608486031215613db957600080fd5b613dc284613bd4565b9250613dd060208501613bd4565b9150604084013590509250925092565b8015158114612a2657600080fd5b60008060408385031215613e0157600080fd5b613e0a83613bd4565b91506020830135613e1a81613de0565b809150509250929050565b80518252600060208201516001600160a01b03808216602086015280604085015116604086015250506060820151606084015260808201511515608084015260a082015160c060a085015261267560c0850182613b7c565b6000602080830181845280855180835260408601915060408160051b870101925083870160005b82811015613ed257603f19888603018452613ec0858351613e25565b94509285019290850190600101613ea4565b5092979650505050505050565b600060208284031215613ef157600080fd5b813567ffffffffffffffff811115613f0857600080fd5b61267584828501613c30565b600060208284031215613f2657600080fd5b6131a682613bd4565b60008060008060808587031215613f4557600080fd5b613f4e85613bd4565b93506020850135925060408501359150606085013567ffffffffffffffff811115613d6a57600080fd5b6020815260006131a66020830184613e25565b600060208284031215613f9d57600080fd5b81356131a681613de0565b60008060008060808587031215613fbe57600080fd5b613fc785613bd4565b9350613fd560208601613bd4565b925060408501359150606085013567ffffffffffffffff811115613d6a57600080fd5b6000806040838503121561400b57600080fd5b61401483613bd4565b9150602083013567ffffffffffffffff81111561403057600080fd5b61403c85828601613c30565b9150509250929050565b6000806040838503121561405957600080fd5b61406283613bd4565b915061407060208401613bd4565b90509250929050565b600181811c9082168061408d57607f821691505b602082108114156140ae57634e487b7160e01b600052602260045260246000fd5b50919050565b60006001600160a01b038088168352808716602084015250846040830152831515606083015260a060808301526140ee60a0830184613b7c565b979650505050505050565b634e487b7160e01b600052601160045260246000fd5b60008219821115614122576141226140f9565b500190565b634e487b7160e01b600052603260045260246000fd5b6000600019821415614151576141516140f9565b5060010190565b60006020828403121561416a57600080fd5b5051919050565b60006020828403121561418357600080fd5b81516131a681613de0565b600083516141a0818460208801613b50565b8351908301906141b4818360208801613b50565b01949350505050565b8281526040602082015260006126756040830184613b7c565b600082516141e8818460208701613b50565b9190910192915050565b60006020828403121561420457600080fd5b81516131a681613b1d565b600082821015614221576142216140f9565b500390565b60006001600160a01b038087168352808616602084015250836040830152608060608301526133766080830184613b7c565b634e487b7160e01b600052601260045260246000fd5b60008261427d5761427d614258565b500490565b60008261429157614291614258565b50069056fea264697066735822122035aa5db15e05ab35686dd4af3572abfe16e9e9b78481896a8e3486f1b9d3056364736f6c63430008090033",
    "linkReferences": {},
    "deployedLinkReferences": {}
}