{
    "_format": "hh-sol-artifact-1",
    "contractName": "NFTMarketplace",
    "sourceName": "contracts/NFTMarketplace.sol",
    "abi": [
        {
            "inputs": [
                {
                    "internalType": "address",
                    "name": "_operator",
                    "type": "address"
                },
                {
                    "internalType": "address",
                    "name": "_receivingToken",
                    "type": "address"
                }
            ],
            "stateMutability": "nonpayable",
            "type": "constructor"
        },
        {
            "anonymous": false,
            "inputs": [
                {
                    "indexed": true,
                    "internalType": "address",
                    "name": "owner",
                    "type": "address"
                },
                {
                    "indexed": true,
                    "internalType": "address",
                    "name": "approved",
                    "type": "address"
                },
                {
                    "indexed": true,
                    "internalType": "uint256",
                    "name": "tokenId",
                    "type": "uint256"
                }
            ],
            "name": "Approval",
            "type": "event"
        },
        {
            "anonymous": false,
            "inputs": [
                {
                    "indexed": true,
                    "internalType": "address",
                    "name": "owner",
                    "type": "address"
                },
                {
                    "indexed": true,
                    "internalType": "address",
                    "name": "operator",
                    "type": "address"
                },
                {
                    "indexed": false,
                    "internalType": "bool",
                    "name": "approved",
                    "type": "bool"
                }
            ],
            "name": "ApprovalForAll",
            "type": "event"
        },
        {
            "anonymous": false,
            "inputs": [
                {
                    "indexed": true,
                    "internalType": "uint256",
                    "name": "tokenId",
                    "type": "uint256"
                },
                {
                    "indexed": false,
                    "internalType": "address",
                    "name": "owner",
                    "type": "address"
                },
                {
                    "indexed": false,
                    "internalType": "address",
                    "name": "seller",
                    "type": "address"
                },
                {
                    "indexed": false,
                    "internalType": "uint256",
                    "name": "price",
                    "type": "uint256"
                },
                {
                    "indexed": false,
                    "internalType": "bool",
                    "name": "currentlyListed",
                    "type": "bool"
                },
                {
                    "indexed": false,
                    "internalType": "string",
                    "name": "tokenURI",
                    "type": "string"
                }
            ],
            "name": "TokenListedSuccess",
            "type": "event"
        },
        {
            "anonymous": false,
            "inputs": [
                {
                    "indexed": true,
                    "internalType": "address",
                    "name": "from",
                    "type": "address"
                },
                {
                    "indexed": true,
                    "internalType": "address",
                    "name": "to",
                    "type": "address"
                },
                {
                    "indexed": true,
                    "internalType": "uint256",
                    "name": "tokenId",
                    "type": "uint256"
                }
            ],
            "name": "Transfer",
            "type": "event"
        },
        {
            "inputs": [],
            "name": "DOMAIN_SEPARATOR",
            "outputs": [
                {
                    "internalType": "bytes32",
                    "name": "",
                    "type": "bytes32"
                }
            ],
            "stateMutability": "view",
            "type": "function"
        },
        {
            "inputs": [
                {
                    "internalType": "address",
                    "name": "to",
                    "type": "address"
                },
                {
                    "internalType": "uint256",
                    "name": "tokenId",
                    "type": "uint256"
                }
            ],
            "name": "approve",
            "outputs": [],
            "stateMutability": "nonpayable",
            "type": "function"
        },
        {
            "inputs": [
                {
                    "internalType": "address",
                    "name": "owner",
                    "type": "address"
                }
            ],
            "name": "balanceOf",
            "outputs": [
                {
                    "internalType": "uint256",
                    "name": "",
                    "type": "uint256"
                }
            ],
            "stateMutability": "view",
            "type": "function"
        },
        {
            "inputs": [
                {
                    "internalType": "string",
                    "name": "tokenURI",
                    "type": "string"
                }
            ],
            "name": "createToken",
            "outputs": [
                {
                    "internalType": "uint256",
                    "name": "",
                    "type": "uint256"
                }
            ],
            "stateMutability": "payable",
            "type": "function"
        },
        {
            "inputs": [
                {
                    "internalType": "address",
                    "name": "recipient",
                    "type": "address"
                },
                {
                    "internalType": "string",
                    "name": "tokenURI",
                    "type": "string"
                }
            ],
            "name": "crossCreateToken",
            "outputs": [],
            "stateMutability": "payable",
            "type": "function"
        },
        {
            "inputs": [
                {
                    "internalType": "address",
                    "name": "recipient",
                    "type": "address"
                },
                {
                    "internalType": "uint256",
                    "name": "tokenId",
                    "type": "uint256"
                }
            ],
            "name": "crossDelistToken",
            "outputs": [],
            "stateMutability": "nonpayable",
            "type": "function"
        },
        {
            "inputs": [
                {
                    "internalType": "address",
                    "name": "recipient",
                    "type": "address"
                },
                {
                    "internalType": "uint256",
                    "name": "tokenId",
                    "type": "uint256"
                }
            ],
            "name": "crossExecuteSale",
            "outputs": [],
            "stateMutability": "nonpayable",
            "type": "function"
        },
        {
            "inputs": [
                {
                    "internalType": "address",
                    "name": "recipient",
                    "type": "address"
                },
                {
                    "internalType": "uint256",
                    "name": "tokenId",
                    "type": "uint256"
                },
                {
                    "internalType": "uint256",
                    "name": "price",
                    "type": "uint256"
                },
                {
                    "internalType": "uint256",
                    "name": "deadline",
                    "type": "uint256"
                },
                {
                    "internalType": "bytes",
                    "name": "signature",
                    "type": "bytes"
                }
            ],
            "name": "crossSetListToken",
            "outputs": [],
            "stateMutability": "nonpayable",
            "type": "function"
        },
        {
            "inputs": [
                {
                    "internalType": "uint256",
                    "name": "tokenId",
                    "type": "uint256"
                }
            ],
            "name": "delistToken",
            "outputs": [],
            "stateMutability": "nonpayable",
            "type": "function"
        },
        {
            "inputs": [
                {
                    "internalType": "uint256",
                    "name": "tokenId",
                    "type": "uint256"
                }
            ],
            "name": "executeSale",
            "outputs": [],
            "stateMutability": "payable",
            "type": "function"
        },
        {
            "inputs": [
                {
                    "internalType": "bool",
                    "name": "listedOnly",
                    "type": "bool"
                }
            ],
            "name": "getAllNFTs",
            "outputs": [
                {
                    "components": [
                        {
                            "internalType": "uint256",
                            "name": "tokenId",
                            "type": "uint256"
                        },
                        {
                            "internalType": "address payable",
                            "name": "owner",
                            "type": "address"
                        },
                        {
                            "internalType": "address payable",
                            "name": "seller",
                            "type": "address"
                        },
                        {
                            "internalType": "uint256",
                            "name": "price",
                            "type": "uint256"
                        },
                        {
                            "internalType": "bool",
                            "name": "currentlyListed",
                            "type": "bool"
                        },
                        {
                            "internalType": "string",
                            "name": "tokenURI",
                            "type": "string"
                        }
                    ],
                    "internalType": "struct NFTMarketplace.ListedToken[]",
                    "name": "",
                    "type": "tuple[]"
                }
            ],
            "stateMutability": "view",
            "type": "function"
        },
        {
            "inputs": [
                {
                    "internalType": "uint256",
                    "name": "tokenId",
                    "type": "uint256"
                }
            ],
            "name": "getApproved",
            "outputs": [
                {
                    "internalType": "address",
                    "name": "",
                    "type": "address"
                }
            ],
            "stateMutability": "view",
            "type": "function"
        },
        {
            "inputs": [],
            "name": "getCurrentToken",
            "outputs": [
                {
                    "internalType": "uint256",
                    "name": "",
                    "type": "uint256"
                }
            ],
            "stateMutability": "view",
            "type": "function"
        },
        {
            "inputs": [],
            "name": "getFloorPrice",
            "outputs": [
                {
                    "internalType": "uint256",
                    "name": "",
                    "type": "uint256"
                }
            ],
            "stateMutability": "view",
            "type": "function"
        },
        {
            "inputs": [
                {
                    "internalType": "address",
                    "name": "holder",
                    "type": "address"
                },
                {
                    "internalType": "bool",
                    "name": "listedOnly",
                    "type": "bool"
                }
            ],
            "name": "getHolderNFTs",
            "outputs": [
                {
                    "components": [
                        {
                            "internalType": "uint256",
                            "name": "tokenId",
                            "type": "uint256"
                        },
                        {
                            "internalType": "address payable",
                            "name": "owner",
                            "type": "address"
                        },
                        {
                            "internalType": "address payable",
                            "name": "seller",
                            "type": "address"
                        },
                        {
                            "internalType": "uint256",
                            "name": "price",
                            "type": "uint256"
                        },
                        {
                            "internalType": "bool",
                            "name": "currentlyListed",
                            "type": "bool"
                        },
                        {
                            "internalType": "string",
                            "name": "tokenURI",
                            "type": "string"
                        }
                    ],
                    "internalType": "struct NFTMarketplace.ListedToken[]",
                    "name": "",
                    "type": "tuple[]"
                }
            ],
            "stateMutability": "view",
            "type": "function"
        },
        {
            "inputs": [],
            "name": "getLatestIdToListedToken",
            "outputs": [
                {
                    "components": [
                        {
                            "internalType": "uint256",
                            "name": "tokenId",
                            "type": "uint256"
                        },
                        {
                            "internalType": "address payable",
                            "name": "owner",
                            "type": "address"
                        },
                        {
                            "internalType": "address payable",
                            "name": "seller",
                            "type": "address"
                        },
                        {
                            "internalType": "uint256",
                            "name": "price",
                            "type": "uint256"
                        },
                        {
                            "internalType": "bool",
                            "name": "currentlyListed",
                            "type": "bool"
                        },
                        {
                            "internalType": "string",
                            "name": "tokenURI",
                            "type": "string"
                        }
                    ],
                    "internalType": "struct NFTMarketplace.ListedToken",
                    "name": "",
                    "type": "tuple"
                }
            ],
            "stateMutability": "view",
            "type": "function"
        },
        {
            "inputs": [],
            "name": "getListPrice",
            "outputs": [
                {
                    "internalType": "uint256",
                    "name": "",
                    "type": "uint256"
                }
            ],
            "stateMutability": "view",
            "type": "function"
        },
        {
            "inputs": [
                {
                    "internalType": "uint256",
                    "name": "tokenId",
                    "type": "uint256"
                }
            ],
            "name": "getListedTokenForId",
            "outputs": [
                {
                    "components": [
                        {
                            "internalType": "uint256",
                            "name": "tokenId",
                            "type": "uint256"
                        },
                        {
                            "internalType": "address payable",
                            "name": "owner",
                            "type": "address"
                        },
                        {
                            "internalType": "address payable",
                            "name": "seller",
                            "type": "address"
                        },
                        {
                            "internalType": "uint256",
                            "name": "price",
                            "type": "uint256"
                        },
                        {
                            "internalType": "bool",
                            "name": "currentlyListed",
                            "type": "bool"
                        },
                        {
                            "internalType": "string",
                            "name": "tokenURI",
                            "type": "string"
                        }
                    ],
                    "internalType": "struct NFTMarketplace.ListedToken",
                    "name": "",
                    "type": "tuple"
                }
            ],
            "stateMutability": "view",
            "type": "function"
        },
        {
            "inputs": [],
            "name": "getMyNFTs",
            "outputs": [
                {
                    "components": [
                        {
                            "internalType": "uint256",
                            "name": "tokenId",
                            "type": "uint256"
                        },
                        {
                            "internalType": "address payable",
                            "name": "owner",
                            "type": "address"
                        },
                        {
                            "internalType": "address payable",
                            "name": "seller",
                            "type": "address"
                        },
                        {
                            "internalType": "uint256",
                            "name": "price",
                            "type": "uint256"
                        },
                        {
                            "internalType": "bool",
                            "name": "currentlyListed",
                            "type": "bool"
                        },
                        {
                            "internalType": "string",
                            "name": "tokenURI",
                            "type": "string"
                        }
                    ],
                    "internalType": "struct NFTMarketplace.ListedToken[]",
                    "name": "",
                    "type": "tuple[]"
                }
            ],
            "stateMutability": "view",
            "type": "function"
        },
        {
            "inputs": [],
            "name": "getOperator",
            "outputs": [
                {
                    "internalType": "address",
                    "name": "",
                    "type": "address"
                }
            ],
            "stateMutability": "view",
            "type": "function"
        },
        {
            "inputs": [],
            "name": "getOwner",
            "outputs": [
                {
                    "internalType": "address",
                    "name": "",
                    "type": "address"
                }
            ],
            "stateMutability": "view",
            "type": "function"
        },
        {
            "inputs": [],
            "name": "getReceivingToken",
            "outputs": [
                {
                    "internalType": "address",
                    "name": "",
                    "type": "address"
                }
            ],
            "stateMutability": "view",
            "type": "function"
        },
        {
            "inputs": [
                {
                    "internalType": "address",
                    "name": "owner",
                    "type": "address"
                },
                {
                    "internalType": "address",
                    "name": "operator",
                    "type": "address"
                }
            ],
            "name": "isApprovedForAll",
            "outputs": [
                {
                    "internalType": "bool",
                    "name": "",
                    "type": "bool"
                }
            ],
            "stateMutability": "view",
            "type": "function"
        },
        {
            "inputs": [],
            "name": "name",
            "outputs": [
                {
                    "internalType": "string",
                    "name": "",
                    "type": "string"
                }
            ],
            "stateMutability": "view",
            "type": "function"
        },
        {
            "inputs": [
                {
                    "internalType": "uint256",
                    "name": "tokenId",
                    "type": "uint256"
                }
            ],
            "name": "nonces",
            "outputs": [
                {
                    "internalType": "uint256",
                    "name": "",
                    "type": "uint256"
                }
            ],
            "stateMutability": "view",
            "type": "function"
        },
        {
            "inputs": [
                {
                    "internalType": "uint256",
                    "name": "tokenId",
                    "type": "uint256"
                }
            ],
            "name": "ownerOf",
            "outputs": [
                {
                    "internalType": "address",
                    "name": "",
                    "type": "address"
                }
            ],
            "stateMutability": "view",
            "type": "function"
        },
        {
            "inputs": [
                {
                    "internalType": "address",
                    "name": "spender",
                    "type": "address"
                },
                {
                    "internalType": "uint256",
                    "name": "tokenId",
                    "type": "uint256"
                },
                {
                    "internalType": "uint256",
                    "name": "deadline",
                    "type": "uint256"
                },
                {
                    "internalType": "bytes",
                    "name": "signature",
                    "type": "bytes"
                }
            ],
            "name": "permit",
            "outputs": [],
            "stateMutability": "nonpayable",
            "type": "function"
        },
        {
            "inputs": [
                {
                    "internalType": "address",
                    "name": "from",
                    "type": "address"
                },
                {
                    "internalType": "address",
                    "name": "to",
                    "type": "address"
                },
                {
                    "internalType": "uint256",
                    "name": "tokenId",
                    "type": "uint256"
                }
            ],
            "name": "safeTransferFrom",
            "outputs": [],
            "stateMutability": "nonpayable",
            "type": "function"
        },
        {
            "inputs": [
                {
                    "internalType": "address",
                    "name": "from",
                    "type": "address"
                },
                {
                    "internalType": "address",
                    "name": "to",
                    "type": "address"
                },
                {
                    "internalType": "uint256",
                    "name": "tokenId",
                    "type": "uint256"
                },
                {
                    "internalType": "bytes",
                    "name": "data",
                    "type": "bytes"
                }
            ],
            "name": "safeTransferFrom",
            "outputs": [],
            "stateMutability": "nonpayable",
            "type": "function"
        },
        {
            "inputs": [
                {
                    "internalType": "address",
                    "name": "operator",
                    "type": "address"
                },
                {
                    "internalType": "bool",
                    "name": "approved",
                    "type": "bool"
                }
            ],
            "name": "setApprovalForAll",
            "outputs": [],
            "stateMutability": "nonpayable",
            "type": "function"
        },
        {
            "inputs": [
                {
                    "internalType": "uint256",
                    "name": "tokenId",
                    "type": "uint256"
                },
                {
                    "internalType": "uint256",
                    "name": "price",
                    "type": "uint256"
                }
            ],
            "name": "setListToken",
            "outputs": [],
            "stateMutability": "nonpayable",
            "type": "function"
        },
        {
            "inputs": [
                {
                    "internalType": "uint256",
                    "name": "tokenId",
                    "type": "uint256"
                },
                {
                    "internalType": "uint256",
                    "name": "price",
                    "type": "uint256"
                },
                {
                    "internalType": "uint256",
                    "name": "deadline",
                    "type": "uint256"
                },
                {
                    "internalType": "bytes",
                    "name": "signature",
                    "type": "bytes"
                }
            ],
            "name": "setListTokenGasless",
            "outputs": [],
            "stateMutability": "nonpayable",
            "type": "function"
        },
        {
            "inputs": [
                {
                    "internalType": "bytes4",
                    "name": "interfaceId",
                    "type": "bytes4"
                }
            ],
            "name": "supportsInterface",
            "outputs": [
                {
                    "internalType": "bool",
                    "name": "",
                    "type": "bool"
                }
            ],
            "stateMutability": "view",
            "type": "function"
        },
        {
            "inputs": [],
            "name": "symbol",
            "outputs": [
                {
                    "internalType": "string",
                    "name": "",
                    "type": "string"
                }
            ],
            "stateMutability": "view",
            "type": "function"
        },
        {
            "inputs": [
                {
                    "internalType": "uint256",
                    "name": "tokenId",
                    "type": "uint256"
                }
            ],
            "name": "tokenURI",
            "outputs": [
                {
                    "internalType": "string",
                    "name": "",
                    "type": "string"
                }
            ],
            "stateMutability": "view",
            "type": "function"
        },
        {
            "inputs": [
                {
                    "internalType": "address",
                    "name": "from",
                    "type": "address"
                },
                {
                    "internalType": "address",
                    "name": "to",
                    "type": "address"
                },
                {
                    "internalType": "uint256",
                    "name": "tokenId",
                    "type": "uint256"
                }
            ],
            "name": "transferFrom",
            "outputs": [],
            "stateMutability": "nonpayable",
            "type": "function"
        },
        {
            "inputs": [
                {
                    "internalType": "uint256",
                    "name": "_floorPrice",
                    "type": "uint256"
                }
            ],
            "name": "updateFloorPrice",
            "outputs": [],
            "stateMutability": "nonpayable",
            "type": "function"
        },
        {
            "inputs": [
                {
                    "internalType": "uint256",
                    "name": "_listPrice",
                    "type": "uint256"
                }
            ],
            "name": "updateListPrice",
            "outputs": [],
            "stateMutability": "nonpayable",
            "type": "function"
        },
        {
            "inputs": [
                {
                    "internalType": "address",
                    "name": "_operator",
                    "type": "address"
                }
            ],
            "name": "updateOperator",
            "outputs": [],
            "stateMutability": "nonpayable",
            "type": "function"
        },
        {
            "inputs": [
                {
                    "internalType": "address",
                    "name": "_receivingToken",
                    "type": "address"
                }
            ],
            "name": "updateReceivingToken",
            "outputs": [],
            "stateMutability": "nonpayable",
            "type": "function"
        }
    ],
    "bytecode": "0x6101606040527f49ecf333e5b8c95c40fdafc95c1ad136e8914a8fb55e9dc8bb01eaa83a2df9ad6101405261c350600d55620186a0600e553480156200004457600080fd5b506040516200463e3803806200463e833981016040819052620000679162000296565b6040518060400160405280600e81526020016d4e46544d61726b6574706c61636560901b815250604051806040016040528060048152602001634e46544d60e01b81525081604051806040016040528060018152602001603160f81b815250838360016000819055508160019080519060200190620000e8929190620001d3565b508051620000fe906002906020840190620001d3565b5050825160209384012082519284019290922060e08390526101008190524660a0818152604080517f8b73c3c69bb8fe3d512ecc4cf759cc79239f7b179b0ffacaa9a75d522b39400f818901819052818301979097526060810194909452608080850193909352308483018190528151808603909301835260c094850190915281519190960120905292909252610120525050600c8054336001600160a01b031991821617909155600f805482166001600160a01b03958616179055601180549091169290931691909117909155506200030b565b828054620001e190620002ce565b90600052602060002090601f01602090048101928262000205576000855562000250565b82601f106200022057805160ff191683800117855562000250565b8280016001018555821562000250579182015b828111156200025057825182559160200191906001019062000233565b506200025e92915062000262565b5090565b5b808211156200025e576000815560010162000263565b80516001600160a01b03811681146200029157600080fd5b919050565b60008060408385031215620002aa57600080fd5b620002b58362000279565b9150620002c56020840162000279565b90509250929050565b600181811c90821680620002e357607f821691505b602082108114156200030557634e487b7160e01b600052602260045260246000fd5b50919050565b60805160a05160c05160e0516101005161012051610140516142d8620003666000396000612b9901526000612de801526000612e3701526000612e1201526000612d6b01526000612d9501526000612dbf01526142d86000f3fe6080604052600436106102bb5760003560e01c806370a082311161016e578063b88d4fde116100cb578063d5b2d7121161007f578063e985e9c511610064578063e985e9c51461074a578063eb42dad914610793578063ef2d1746146107b357600080fd5b8063d5b2d71214610719578063e7f43c681461072c57600080fd5b8063c322579c116100b0578063c322579c146106c4578063c87b56dd146106e4578063d1a88ae51461070457600080fd5b8063b88d4fde14610684578063bed659bc146106a457600080fd5b806395d89b4111610122578063a22cb46511610107578063a22cb46514610624578063a83835c714610644578063ac7475ed1461066457600080fd5b806395d89b41146105fc5780639b1225c41461061157600080fd5b8063893d20e811610153578063893d20e8146105915780638e264590146105af5780638e9c072c146105dc57600080fd5b806370a0823114610551578063745a41bc1461057157600080fd5b80632d04fa8b1161021c57806345576f94116101d05780636352211e116101b55780636352211e146104fc57806368f1945f1461051c5780636eb7f72e1461053157600080fd5b806345576f94146104d4578063629cb2e4146104e757600080fd5b80633644e515116102015780633644e51514610472578063375ea4b71461048757806342842e0e146104b457600080fd5b80632d04fa8b146104345780632efcc8f11461045257600080fd5b8063141a468c116102735780631a1f1115116102585780631a1f1115146103df57806323b872dd146103ff5780632a33d6b21461041f57600080fd5b8063141a468c1461039157806317f500db146103bf57600080fd5b8063081812fc116102a4578063081812fc14610317578063095ea7b31461034f5780630e03aad01461037157600080fd5b806301ffc9a7146102c057806306fdde03146102f5575b600080fd5b3480156102cc57600080fd5b506102e06102db366004613b3f565b6107c8565b60405190151581526020015b60405180910390f35b34801561030157600080fd5b5061030a61080c565b6040516102ec9190613bb4565b34801561032357600080fd5b50610337610332366004613bc7565b61089e565b6040516001600160a01b0390911681526020016102ec565b34801561035b57600080fd5b5061036f61036a366004613bfc565b6108c5565b005b34801561037d57600080fd5b5061036f61038c366004613cc9565b6109fc565b34801561039d57600080fd5b506103b16103ac366004613bc7565b610c1f565b6040519081526020016102ec565b3480156103cb57600080fd5b5061036f6103da366004613d34565b610c33565b3480156103eb57600080fd5b5061036f6103fa366004613d8e565b610df6565b34801561040b57600080fd5b5061036f61041a366004613db0565b610fb5565b34801561042b57600080fd5b50600e546103b1565b34801561044057600080fd5b506011546001600160a01b0316610337565b34801561045e57600080fd5b5061036f61046d366004613bfc565b61103c565b34801561047e57600080fd5b506103b1611143565b34801561049357600080fd5b506104a76104a2366004613dfa565b611152565b6040516102ec9190613e89565b3480156104c057600080fd5b5061036f6104cf366004613db0565b61155c565b6103b16104e2366004613eeb565b611577565b3480156104f357600080fd5b506104a76115b6565b34801561050857600080fd5b50610337610517366004613bc7565b6118bd565b34801561052857600080fd5b50600d546103b1565b34801561053d57600080fd5b5061036f61054c366004613bc7565b611922565b34801561055d57600080fd5b506103b161056c366004613f20565b6119a7565b34801561057d57600080fd5b5061036f61058c366004613f3b565b611a41565b34801561059d57600080fd5b50600c546001600160a01b0316610337565b3480156105bb57600080fd5b506105cf6105ca366004613bc7565b611a53565b6040516102ec9190613f84565b3480156105e857600080fd5b5061036f6105f7366004613bfc565b611b9e565b34801561060857600080fd5b5061030a611c55565b61036f61061f366004613bc7565b611c64565b34801561063057600080fd5b5061036f61063f366004613dfa565b612035565b34801561065057600080fd5b506104a761065f366004613f97565b612040565b34801561067057600080fd5b5061036f61067f366004613f20565b61235e565b34801561069057600080fd5b5061036f61069f366004613fb4565b6123da565b3480156106b057600080fd5b5061036f6106bf366004613bc7565b612462565b3480156106d057600080fd5b5061036f6106df366004613bc7565b6124fc565b3480156106f057600080fd5b5061030a6106ff366004613bc7565b612581565b34801561071057600080fd5b506105cf612692565b61036f610727366004614004565b6127e9565b34801561073857600080fd5b50600f546001600160a01b0316610337565b34801561075657600080fd5b506102e0610765366004614052565b6001600160a01b03918216600090815260066020908152604080832093909416825291909152205460ff1690565b34801561079f57600080fd5b5061036f6107ae366004613f20565b61288f565b3480156107bf57600080fd5b506103b1612931565b60006001600160e01b031982167f5604e22500000000000000000000000000000000000000000000000000000000148061080657506108068261293c565b92915050565b60606001805461081b90614085565b80601f016020809104026020016040519081016040528092919081815260200182805461084790614085565b80156108945780601f1061086957610100808354040283529160200191610894565b820191906000526020600020905b81548152906001019060200180831161087757829003601f168201915b5050505050905090565b60006108a9826129d7565b506000908152600560205260409020546001600160a01b031690565b60006108d0826118bd565b9050806001600160a01b0316836001600160a01b0316141561095f5760405162461bcd60e51b815260206004820152602160248201527f4552433732313a20617070726f76616c20746f2063757272656e74206f776e6560448201527f720000000000000000000000000000000000000000000000000000000000000060648201526084015b60405180910390fd5b336001600160a01b038216148061097b575061097b8133610765565b6109ed5760405162461bcd60e51b815260206004820152603e60248201527f4552433732313a20617070726f76652063616c6c6572206973206e6f7420746f60448201527f6b656e206f776e6572206e6f7220617070726f76656420666f7220616c6c00006064820152608401610956565b6109f78383612a3e565b505050565b600f546001600160a01b03163314610a655760405162461bcd60e51b815260206004820152602660248201527f4f6e6c79206f70657261746f722063616e2061636365737320746869732066756044820152653731ba34b7b760d11b6064820152608401610956565b60008311610ac05760405162461bcd60e51b815260206004820152602260248201527f4d616b652073757265207468652070726963652069736e2774206e6567617469604482015261766560f01b6064820152608401610956565b600d54831015610b225760405162461bcd60e51b815260206004820152602760248201527f596f75206e65656420746f20696e636c756465206c697374696e6720707269636044820152660ca40d2dc40e8f60cb1b6064820152608401610956565b6000848152601060205260409020600201546001600160a01b03868116911614610b995760405162461bcd60e51b815260206004820152602260248201527f4f6e6c79206e667420686f6c6465722063616e20746f67676c65206c697374696044820152616e6760f01b6064820152608401610956565b610ba68530868585612aac565b6000610bb185612581565b9050847fbe03728682d1fb99860367c3b95f7c28a74af28403c7805ebc7ae722543222cc308887600186604051610bec9594939291906140c0565b60405180910390a25050506000918252601060205260409091206003810191909155600401805460ff1916600117905550565b600081815260076020526040812054610806565b60008311610c8e5760405162461bcd60e51b815260206004820152602260248201527f4d616b652073757265207468652070726963652069736e2774206e6567617469604482015261766560f01b6064820152608401610956565b600d54831015610cf05760405162461bcd60e51b815260206004820152602760248201527f596f75206e65656420746f20696e636c756465206c697374696e6720707269636044820152660ca40d2dc40e8f60cb1b6064820152608401610956565b60008481526010602052604090206002015433906001600160a01b03168114610d665760405162461bcd60e51b815260206004820152602260248201527f4f6e6c79206e667420686f6c6465722063616e20746f67676c65206c697374696044820152616e6760f01b6064820152608401610956565b610d7233868585612b33565b610d7d813087612cc0565b6000610d8886612581565b9050857fbe03728682d1fb99860367c3b95f7c28a74af28403c7805ebc7ae722543222cc308488600186604051610dc39594939291906140c0565b60405180910390a2505050600092835250601060205260409091206003810191909155600401805460ff19166001179055565b60008111610e515760405162461bcd60e51b815260206004820152602260248201527f4d616b652073757265207468652070726963652069736e2774206e6567617469604482015261766560f01b6064820152608401610956565b600d54811015610eb35760405162461bcd60e51b815260206004820152602760248201527f596f75206e65656420746f20696e636c756465206c697374696e6720707269636044820152660ca40d2dc40e8f60cb1b6064820152608401610956565b60008281526010602052604090206002015433906001600160a01b03168114610f295760405162461bcd60e51b815260206004820152602260248201527f4f6e6c79206e667420686f6c6465722063616e20746f67676c65206c697374696044820152616e6760f01b6064820152608401610956565b610f3330846108c5565b610f3e813085612cc0565b6000610f4984612581565b9050837fbe03728682d1fb99860367c3b95f7c28a74af28403c7805ebc7ae722543222cc308486600186604051610f849594939291906140c0565b60405180910390a250506000918252601060205260409091206003810191909155600401805460ff19166001179055565b610fbf3382612ce0565b6110315760405162461bcd60e51b815260206004820152602e60248201527f4552433732313a2063616c6c6572206973206e6f7420746f6b656e206f776e6560448201527f72206e6f7220617070726f7665640000000000000000000000000000000000006064820152608401610956565b6109f7838383612cc0565b600f546001600160a01b031633146110a55760405162461bcd60e51b815260206004820152602660248201527f4f6e6c79206f70657261746f722063616e2061636365737320746869732066756044820152653731ba34b7b760d11b6064820152608401610956565b6000818152601060205260409020600201546001600160a01b0383811691161461111c5760405162461bcd60e51b815260206004820152602260248201527f4f6e6c79206e667420686f6c6465722063616e20746f67676c65206c697374696044820152616e6760f01b6064820152608401610956565b611127308383612cc0565b6000908152601060205260409020600401805460ff1916905550565b600061114d612d5e565b905090565b600c546060906001600160a01b031633146111d55760405162461bcd60e51b815260206004820152602360248201527f4f6e6c79206f776e65722063616e20726574726965766520686f6c646572206460448201527f61746100000000000000000000000000000000000000000000000000000000006064820152608401610956565b60006111e0600a5490565b905060008167ffffffffffffffff8111156111fd576111fd613c26565b60405190808252806020026020018201604052801561127b57816020015b6112686040518060c001604052806000815260200160006001600160a01b0316815260200160006001600160a01b0316815260200160008152602001600015158152602001606081525090565b81526020019060019003908161121b5790505b5090506000805b8381101561155157600061129782600161411b565b60008181526010602052604090209091508780156112b95750600481015460ff165b80156112ed575060018101546001600160a01b038a8116911614806112ed575060028101546001600160a01b038a81169116145b156113f5576040805160c0810182528254815260018301546001600160a01b0390811660208301526002840154169181019190915260038201546060820152600482015460ff1615156080820152600582018054839160a084019161135190614085565b80601f016020809104026020016040519081016040528092919081815260200182805461137d90614085565b80156113ca5780601f1061139f576101008083540402835291602001916113ca565b820191906000526020600020905b8154815290600101906020018083116113ad57829003601f168201915b5050505050815250508585815181106113e5576113e5614133565b602002602001018190525061152f565b8715801561142b575060018101546001600160a01b038a81169116148061142b575060028101546001600160a01b038a81169116145b1561152f576040805160c0810182528254815260018301546001600160a01b0390811660208301526002840154169181019190915260038201546060820152600482015460ff1615156080820152600582018054839160a084019161148f90614085565b80601f01602080910402602001604051908101604052809291908181526020018280546114bb90614085565b80156115085780601f106114dd57610100808354040283529160200191611508565b820191906000526020600020905b8154815290600101906020018083116114eb57829003601f168201915b50505050508152505085858151811061152357611523614133565b60200260200101819052505b61153a60018561411b565b93505050808061154990614149565b915050611282565b509095945050505050565b6109f7838383604051806020016040528060008152506123da565b6000611587600a80546001019055565b6000611592600a5490565b905061159e3382612e85565b6115a88184612e9f565b61080681600e543386612f48565b606060006115c3600a5490565b905060008060005b8381101561165b5733601060006115e384600161411b565b81526020810191909152604001600020600101546001600160a01b031614806116365750336010600061161784600161411b565b81526020810191909152604001600020600201546001600160a01b0316145b156116495761164660018461411b565b92505b8061165381614149565b9150506115cb565b5060008267ffffffffffffffff81111561167757611677613c26565b6040519080825280602002602001820160405280156116f557816020015b6116e26040518060c001604052806000815260200160006001600160a01b0316815260200160006001600160a01b0316815260200160008152602001600015158152602001606081525090565b8152602001906001900390816116955790505b50905060005b848110156118b457336010600061171384600161411b565b81526020810191909152604001600020600101546001600160a01b031614806117665750336010600061174784600161411b565b81526020810191909152604001600020600201546001600160a01b0316145b156118a257600061177882600161411b565b600081815260106020908152604091829020825160c0810184528154815260018201546001600160a01b039081169382019390935260028201549092169282019290925260038201546060820152600482015460ff161515608082015260058201805493945091929091839160a0840191906117f390614085565b80601f016020809104026020016040519081016040528092919081815260200182805461181f90614085565b801561186c5780601f106118415761010080835404028352916020019161186c565b820191906000526020600020905b81548152906001019060200180831161184f57829003601f168201915b50505050508152505084868151811061188757611887614133565b602090810291909101015261189d60018661411b565b945050505b806118ac81614149565b9150506116fb565b50949350505050565b6000818152600360205260408120546001600160a01b0316806108065760405162461bcd60e51b815260206004820152601860248201527f4552433732313a20696e76616c696420746f6b656e20494400000000000000006044820152606401610956565b600c546001600160a01b031633146119a25760405162461bcd60e51b815260206004820152602160248201527f4f6e6c79206f776e65722063616e2075706461746520666c6f6f72207072696360448201527f65000000000000000000000000000000000000000000000000000000000000006064820152608401610956565b600e55565b60006001600160a01b038216611a255760405162461bcd60e51b815260206004820152602960248201527f4552433732313a2061646472657373207a65726f206973206e6f74206120766160448201527f6c6964206f776e657200000000000000000000000000000000000000000000006064820152608401610956565b506001600160a01b031660009081526004602052604090205490565b611a4d84848484612b33565b50505050565b611aa06040518060c001604052806000815260200160006001600160a01b0316815260200160006001600160a01b0316815260200160008152602001600015158152602001606081525090565b600082815260106020908152604091829020825160c0810184528154815260018201546001600160a01b039081169382019390935260028201549092169282019290925260038201546060820152600482015460ff161515608082015260058201805491929160a084019190611b1590614085565b80601f0160208091040260200160405190810160405280929190818152602001828054611b4190614085565b8015611b8e5780601f10611b6357610100808354040283529160200191611b8e565b820191906000526020600020905b815481529060010190602001808311611b7157829003601f168201915b5050505050815250509050919050565b600f546001600160a01b03163314611c075760405162461bcd60e51b815260206004820152602660248201527f4f6e6c79206f70657261746f722063616e2061636365737320746869732066756044820152653731ba34b7b760d11b6064820152608401610956565b600081815260106020526040902060048101805460ff1916905560020180546001600160a01b0319166001600160a01b038416179055600b80546001019055611c51308383612cc0565b5050565b60606002805461081b90614085565b60008181526010602052604090206003810154600282015460049092015490916001600160a01b03169060ff161515600114611ce25760405162461bcd60e51b815260206004820152601260248201527f4e4654206973206e6f74206f6e2073616c6500000000000000000000000000006044820152606401610956565b6011546040517fdd62ed3e0000000000000000000000000000000000000000000000000000000081523360048201819052306024830152916001600160a01b031690600090829063dd62ed3e9060440160206040518083038186803b158015611d4a57600080fd5b505afa158015611d5e573d6000803e3d6000fd5b505050506040513d601f19601f82011682018060405250810190611d829190614164565b905060008111611dd45760405162461bcd60e51b815260206004820152601660248201527f496e73756666696369656e7420616c6c6f77616e6365000000000000000000006044820152606401610956565b6040517f70a0823100000000000000000000000000000000000000000000000000000000815233600482015285906001600160a01b038416906370a082319060240160206040518083038186803b158015611e2e57600080fd5b505afa158015611e42573d6000803e3d6000fd5b505050506040513d601f19601f82011682018060405250810190611e669190614164565b1015611eb45760405162461bcd60e51b815260206004820152601460248201527f496e73756666696369656e74207061796d656e740000000000000000000000006044820152606401610956565b600086815260106020526040902060048101805460ff1916905560020180546001600160a01b0319166001600160a01b038516179055600b805460010190556000600d5486611f03919061417d565b6040516323b872dd60e01b81523360048201526001600160a01b03878116602483015260448201839052919250908416906323b872dd90606401602060405180830381600087803b158015611f5757600080fd5b505af1158015611f6b573d6000803e3d6000fd5b505050506040513d601f19601f82011682018060405250810190611f8f9190614194565b50600c54600d546040516323b872dd60e01b81523360048201526001600160a01b0392831660248201526044810191909152908416906323b872dd90606401602060405180830381600087803b158015611fe857600080fd5b505af1158015611ffc573d6000803e3d6000fd5b505050506040513d601f19601f820116820180604052508101906120209190614194565b5061202c308589612cc0565b50505050505050565b611c51338383612ff8565b6060600061204d600a5490565b905060008167ffffffffffffffff81111561206a5761206a613c26565b6040519080825280602002602001820160405280156120e857816020015b6120d56040518060c001604052806000815260200160006001600160a01b0316815260200160006001600160a01b0316815260200160008152602001600015158152602001606081525090565b8152602001906001900390816120885790505b5090506000805b8381101561235457600061210482600161411b565b60008181526010602052604090209091508780156121265750600481015460ff165b1561222e576040805160c0810182528254815260018301546001600160a01b0390811660208301526002840154169181019190915260038201546060820152600482015460ff1615156080820152600582018054839160a084019161218a90614085565b80601f01602080910402602001604051908101604052809291908181526020018280546121b690614085565b80156122035780601f106121d857610100808354040283529160200191612203565b820191906000526020600020905b8154815290600101906020018083116121e657829003601f168201915b50505050508152505085858151811061221e5761221e614133565b6020026020010181905250612332565b87612332576040805160c0810182528254815260018301546001600160a01b0390811660208301526002840154169181019190915260038201546060820152600482015460ff1615156080820152600582018054839160a084019161229290614085565b80601f01602080910402602001604051908101604052809291908181526020018280546122be90614085565b801561230b5780601f106122e05761010080835404028352916020019161230b565b820191906000526020600020905b8154815290600101906020018083116122ee57829003601f168201915b50505050508152505085858151811061232657612326614133565b60200260200101819052505b61233d60018561411b565b93505050808061234c90614149565b9150506120ef565b5090949350505050565b600c546001600160a01b031633146123b85760405162461bcd60e51b815260206004820152601e60248201527f4f6e6c79206f776e65722063616e20757064617465206f70657261746f7200006044820152606401610956565b600f80546001600160a01b0319166001600160a01b0392909216919091179055565b6123e43383612ce0565b6124565760405162461bcd60e51b815260206004820152602e60248201527f4552433732313a2063616c6c6572206973206e6f7420746f6b656e206f776e6560448201527f72206e6f7220617070726f7665640000000000000000000000000000000000006064820152608401610956565b611a4d848484846130c7565b6000818152601060205260409020600201546001600160a01b031633146124d65760405162461bcd60e51b815260206004820152602260248201527f4f6e6c79206e667420686f6c6465722063616e20746f67676c65206c697374696044820152616e6760f01b6064820152608401610956565b6124e1303383612cc0565b6000908152601060205260409020600401805460ff19169055565b600c546001600160a01b0316331461257c5760405162461bcd60e51b815260206004820152602360248201527f4f6e6c79206f776e65722063616e20757064617465206c697374696e6720707260448201527f69636500000000000000000000000000000000000000000000000000000000006064820152608401610956565b600d55565b606061258c826129d7565b600082815260086020526040812080546125a590614085565b80601f01602080910402602001604051908101604052809291908181526020018280546125d190614085565b801561261e5780601f106125f35761010080835404028352916020019161261e565b820191906000526020600020905b81548152906001019060200180831161260157829003601f168201915b50505050509050600061263c60408051602081019091526000815290565b905080516000141561264f575092915050565b8151156126815780826040516020016126699291906141b1565b60405160208183030381529060405292505050919050565b61268a84613145565b949350505050565b6126df6040518060c001604052806000815260200160006001600160a01b0316815260200160006001600160a01b0316815260200160008152602001600015158152602001606081525090565b60006126ea600a5490565b600081815260106020908152604091829020825160c0810184528154815260018201546001600160a01b039081169382019390935260028201549092169282019290925260038201546060820152600482015460ff1615156080820152600582018054939450909260a08401919061276190614085565b80601f016020809104026020016040519081016040528092919081815260200182805461278d90614085565b80156127da5780601f106127af576101008083540402835291602001916127da565b820191906000526020600020905b8154815290600101906020018083116127bd57829003601f168201915b50505050508152505091505090565b600f546001600160a01b031633146128525760405162461bcd60e51b815260206004820152602660248201527f4f6e6c79206f70657261746f722063616e2061636365737320746869732066756044820152653731ba34b7b760d11b6064820152608401610956565b612860600a80546001019055565b600061286b600a5490565b90506128778382612e85565b6128818183612e9f565b6109f781600e548585612f48565b600c546001600160a01b0316331461290f5760405162461bcd60e51b815260206004820152602560248201527f4f6e6c79206f776e65722063616e2075706461746520726563656976696e672060448201527f746f6b656e0000000000000000000000000000000000000000000000000000006064820152608401610956565b601180546001600160a01b0319166001600160a01b0392909216919091179055565b600061114d600a5490565b60006001600160e01b031982167f80ac58cd00000000000000000000000000000000000000000000000000000000148061299f57506001600160e01b031982167f5b5e139f00000000000000000000000000000000000000000000000000000000145b8061080657507f01ffc9a7000000000000000000000000000000000000000000000000000000006001600160e01b0319831614610806565b6000818152600360205260409020546001600160a01b0316612a3b5760405162461bcd60e51b815260206004820152601860248201527f4552433732313a20696e76616c696420746f6b656e20494400000000000000006044820152606401610956565b50565b600081815260056020526040902080546001600160a01b0319166001600160a01b0384169081179091558190612a73826118bd565b6001600160a01b03167f8c5be1e5ebec7d5bd14f71427d1e84f3dd0314c0f7b2291e5b200ac8c7c3b92560405160405180910390a45050565b600f546001600160a01b03163314612b155760405162461bcd60e51b815260206004820152602660248201527f4f6e6c79206f70657261746f722063616e2061636365737320746869732066756044820152653731ba34b7b760d11b6064820152608401610956565b612b2133848484612b33565b612b2c858585612cc0565b5050505050565b81421115612b835760405162461bcd60e51b815260206004820152601e60248201527f4552433732315065726d69743a206578706972656420646561646c696e6500006044820152606401610956565b60008381526007602090815260408083205481517f0000000000000000000000000000000000000000000000000000000000000000818501526001600160a01b0389168184015260608101889052608081019190915260a08082018790528251808303909101815260c0909101909152805191012090612c02826131b9565b90506000612c108285613222565b50905060006001600160a01b03821615801590612c325750612c328288612ce0565b90508080612c4e5750612c4e612c47886118bd565b8487613268565b80612c605750612c60612c478861089e565b612cac5760405162461bcd60e51b815260206004820152601f60248201527f4552433732315065726d69743a20696e76616c6964207369676e6174757265006044820152606401610956565b612cb68888612a3e565b5050505050505050565b6000818152600760205260409020805460010190556109f783838361338c565b600080612cec836118bd565b9050806001600160a01b0316846001600160a01b03161480612d3357506001600160a01b0380821660009081526006602090815260408083209388168352929052205460ff165b8061268a5750836001600160a01b0316612d4c8461089e565b6001600160a01b031614949350505050565b6000306001600160a01b037f000000000000000000000000000000000000000000000000000000000000000016148015612db757507f000000000000000000000000000000000000000000000000000000000000000046145b15612de157507f000000000000000000000000000000000000000000000000000000000000000090565b50604080517f00000000000000000000000000000000000000000000000000000000000000006020808301919091527f0000000000000000000000000000000000000000000000000000000000000000828401527f000000000000000000000000000000000000000000000000000000000000000060608301524660808301523060a0808401919091528351808403909101815260c0909201909252805191012090565b611c51828260405180602001604052806000815250613559565b6000828152600360205260409020546001600160a01b0316612f295760405162461bcd60e51b815260206004820152602e60248201527f45524337323155524953746f726167653a2055524920736574206f66206e6f6e60448201527f6578697374656e7420746f6b656e0000000000000000000000000000000000006064820152608401610956565b600082815260086020908152604090912082516109f792840190613a90565b6040805160c0810182528581523060208083019182526001600160a01b038681168486019081526060850189815260006080870181815260a088018a81528d835260108752989091208751815595516001870180546001600160a01b031990811692871692909217905592516002870180549094169416939093179091555160038401555160048301805460ff1916911515919091179055925180519293919261202c9260058501920190613a90565b816001600160a01b0316836001600160a01b0316141561305a5760405162461bcd60e51b815260206004820152601960248201527f4552433732313a20617070726f766520746f2063616c6c6572000000000000006044820152606401610956565b6001600160a01b03838116600081815260066020908152604080832094871680845294825291829020805460ff191686151590811790915591519182527f17307eab39ab6107e8899845ad3d59bd9653f200f220920489ca2b5937696c31910160405180910390a3505050565b6130d2848484612cc0565b6130de848484846135d7565b611a4d5760405162461bcd60e51b815260206004820152603260248201527f4552433732313a207472616e7366657220746f206e6f6e20455243373231526560448201527131b2b4bb32b91034b6b83632b6b2b73a32b960711b6064820152608401610956565b6060613150826129d7565b600061316760408051602081019091526000815290565b9050600081511161318757604051806020016040528060008152506131b2565b806131918461372f565b6040516020016131a29291906141b1565b6040516020818303038152906040525b9392505050565b60006108066131c6612d5e565b836040517f19010000000000000000000000000000000000000000000000000000000000006020820152602281018390526042810182905260009060620160405160208183030381529060405280519060200120905092915050565b6000808251604114156132595760208301516040840151606085015160001a61324d87828585613861565b94509450505050613261565b506000905060025b9250929050565b6000806000856001600160a01b0316631626ba7e60e01b86866040516024016132929291906141e0565b60408051601f198184030181529181526020820180517bffffffffffffffffffffffffffffffffffffffffffffffffffffffff166001600160e01b03199094169390931790925290516132e591906141f9565b600060405180830381855afa9150503d8060008114613320576040519150601f19603f3d011682016040523d82523d6000602084013e613325565b606091505b5091509150818015613338575080516020145b8015613382575080517f1626ba7e00000000000000000000000000000000000000000000000000000000906133769083016020908101908401614215565b6001600160e01b031916145b9695505050505050565b826001600160a01b031661339f826118bd565b6001600160a01b03161461341b5760405162461bcd60e51b815260206004820152602560248201527f4552433732313a207472616e736665722066726f6d20696e636f72726563742060448201527f6f776e65720000000000000000000000000000000000000000000000000000006064820152608401610956565b6001600160a01b0382166134965760405162461bcd60e51b8152602060048201526024808201527f4552433732313a207472616e7366657220746f20746865207a65726f2061646460448201527f72657373000000000000000000000000000000000000000000000000000000006064820152608401610956565b6134a1600082612a3e565b6001600160a01b03831660009081526004602052604081208054600192906134ca90849061417d565b90915550506001600160a01b03821660009081526004602052604081208054600192906134f890849061411b565b909155505060008181526003602052604080822080546001600160a01b0319166001600160a01b0386811691821790925591518493918716917fddf252ad1be2c89b69c2b068fc378daa952ba7f163c4a11628f55a4df523b3ef91a4505050565b613563838361394e565b61357060008484846135d7565b6109f75760405162461bcd60e51b815260206004820152603260248201527f4552433732313a207472616e7366657220746f206e6f6e20455243373231526560448201527131b2b4bb32b91034b6b83632b6b2b73a32b960711b6064820152608401610956565b60006001600160a01b0384163b1561372457604051630a85bd0160e11b81526001600160a01b0385169063150b7a029061361b903390899088908890600401614232565b602060405180830381600087803b15801561363557600080fd5b505af1925050508015613665575060408051601f3d908101601f1916820190925261366291810190614215565b60015b61370a573d808015613693576040519150601f19603f3d011682016040523d82523d6000602084013e613698565b606091505b5080516137025760405162461bcd60e51b815260206004820152603260248201527f4552433732313a207472616e7366657220746f206e6f6e20455243373231526560448201527131b2b4bb32b91034b6b83632b6b2b73a32b960711b6064820152608401610956565b805181602001fd5b6001600160e01b031916630a85bd0160e11b14905061268a565b506001949350505050565b60608161376f57505060408051808201909152600181527f3000000000000000000000000000000000000000000000000000000000000000602082015290565b8160005b8115613799578061378381614149565b91506137929050600a8361427a565b9150613773565b60008167ffffffffffffffff8111156137b4576137b4613c26565b6040519080825280601f01601f1916602001820160405280156137de576020820181803683370190505b5090505b841561268a576137f360018361417d565b9150613800600a8661428e565b61380b90603061411b565b60f81b81838151811061382057613820614133565b60200101907effffffffffffffffffffffffffffffffffffffffffffffffffffffffffffff1916908160001a90535061385a600a8661427a565b94506137e2565b6000807f7fffffffffffffffffffffffffffffff5d576e7357a4501ddfe92f46681b20a08311156138985750600090506003613945565b8460ff16601b141580156138b057508460ff16601c14155b156138c15750600090506004613945565b6040805160008082526020820180845289905260ff881692820192909252606081018690526080810185905260019060a0016020604051602081039080840390855afa158015613915573d6000803e3d6000fd5b5050604051601f1901519150506001600160a01b03811661393e57600060019250925050613945565b9150600090505b94509492505050565b6001600160a01b0382166139a45760405162461bcd60e51b815260206004820181905260248201527f4552433732313a206d696e7420746f20746865207a65726f20616464726573736044820152606401610956565b6000818152600360205260409020546001600160a01b031615613a095760405162461bcd60e51b815260206004820152601c60248201527f4552433732313a20746f6b656e20616c7265616479206d696e746564000000006044820152606401610956565b6001600160a01b0382166000908152600460205260408120805460019290613a3290849061411b565b909155505060008181526003602052604080822080546001600160a01b0319166001600160a01b03861690811790915590518392907fddf252ad1be2c89b69c2b068fc378daa952ba7f163c4a11628f55a4df523b3ef908290a45050565b828054613a9c90614085565b90600052602060002090601f016020900481019282613abe5760008555613b04565b82601f10613ad757805160ff1916838001178555613b04565b82800160010185558215613b04579182015b82811115613b04578251825591602001919060010190613ae9565b50613b10929150613b14565b5090565b5b80821115613b105760008155600101613b15565b6001600160e01b031981168114612a3b57600080fd5b600060208284031215613b5157600080fd5b81356131b281613b29565b60005b83811015613b77578181015183820152602001613b5f565b83811115611a4d5750506000910152565b60008151808452613ba0816020860160208601613b5c565b601f01601f19169290920160200192915050565b6020815260006131b26020830184613b88565b600060208284031215613bd957600080fd5b5035919050565b80356001600160a01b0381168114613bf757600080fd5b919050565b60008060408385031215613c0f57600080fd5b613c1883613be0565b946020939093013593505050565b634e487b7160e01b600052604160045260246000fd5b600082601f830112613c4d57600080fd5b813567ffffffffffffffff80821115613c6857613c68613c26565b604051601f8301601f19908116603f01168101908282118183101715613c9057613c90613c26565b81604052838152866020858801011115613ca957600080fd5b836020870160208301376000602085830101528094505050505092915050565b600080600080600060a08688031215613ce157600080fd5b613cea86613be0565b9450602086013593506040860135925060608601359150608086013567ffffffffffffffff811115613d1b57600080fd5b613d2788828901613c3c565b9150509295509295909350565b60008060008060808587031215613d4a57600080fd5b843593506020850135925060408501359150606085013567ffffffffffffffff811115613d7657600080fd5b613d8287828801613c3c565b91505092959194509250565b60008060408385031215613da157600080fd5b50508035926020909101359150565b600080600060608486031215613dc557600080fd5b613dce84613be0565b9250613ddc60208501613be0565b9150604084013590509250925092565b8015158114612a3b57600080fd5b60008060408385031215613e0d57600080fd5b613e1683613be0565b91506020830135613e2681613dec565b809150509250929050565b80518252600060208201516001600160a01b03808216602086015280604085015116604086015250506060820151606084015260808201511515608084015260a082015160c060a085015261268a60c0850182613b88565b6000602080830181845280855180835260408601915060408160051b870101925083870160005b82811015613ede57603f19888603018452613ecc858351613e31565b94509285019290850190600101613eb0565b5092979650505050505050565b600060208284031215613efd57600080fd5b813567ffffffffffffffff811115613f1457600080fd5b61268a84828501613c3c565b600060208284031215613f3257600080fd5b6131b282613be0565b60008060008060808587031215613f5157600080fd5b613f5a85613be0565b93506020850135925060408501359150606085013567ffffffffffffffff811115613d7657600080fd5b6020815260006131b26020830184613e31565b600060208284031215613fa957600080fd5b81356131b281613dec565b60008060008060808587031215613fca57600080fd5b613fd385613be0565b9350613fe160208601613be0565b925060408501359150606085013567ffffffffffffffff811115613d7657600080fd5b6000806040838503121561401757600080fd5b61402083613be0565b9150602083013567ffffffffffffffff81111561403c57600080fd5b61404885828601613c3c565b9150509250929050565b6000806040838503121561406557600080fd5b61406e83613be0565b915061407c60208401613be0565b90509250929050565b600181811c9082168061409957607f821691505b602082108114156140ba57634e487b7160e01b600052602260045260246000fd5b50919050565b60006001600160a01b038088168352808716602084015250846040830152831515606083015260a060808301526140fa60a0830184613b88565b979650505050505050565b634e487b7160e01b600052601160045260246000fd5b6000821982111561412e5761412e614105565b500190565b634e487b7160e01b600052603260045260246000fd5b600060001982141561415d5761415d614105565b5060010190565b60006020828403121561417657600080fd5b5051919050565b60008282101561418f5761418f614105565b500390565b6000602082840312156141a657600080fd5b81516131b281613dec565b600083516141c3818460208801613b5c565b8351908301906141d7818360208801613b5c565b01949350505050565b82815260406020820152600061268a6040830184613b88565b6000825161420b818460208701613b5c565b9190910192915050565b60006020828403121561422757600080fd5b81516131b281613b29565b60006001600160a01b038087168352808616602084015250836040830152608060608301526133826080830184613b88565b634e487b7160e01b600052601260045260246000fd5b60008261428957614289614264565b500490565b60008261429d5761429d614264565b50069056fea26469706673582212208a9bac26a72f5328a2b6067b81e2e8421e0d0bf4c9c41b2f140980dd87d5a52364736f6c63430008090033",
    "linkReferences": {},
    "deployedLinkReferences": {}
}